:100000000A128A11C42F5A3400346834103401346F
:10001000003483120313B600360803191028112880
:100020002528B11F1428152825282E09B8002F09C6
:10003000B9003009BA003109BB00B80A0319B90A7E
:100040000319BA0A0319BB0A2D283108BB0030086E
:10005000BA002F08B9002E08B800310830042F0468
:100060002E04031D342835283E280030B10000300E
:10007000B0000030AF000030AE00C4289630B200AF
:100080003208B70050280130B2003208B7070130FB
:100090000310BB0CBA0CB90CB80CFF3E031D48286A
:1000A000FE303B05031D5528562843287228013091
:1000B000B2003208B7070130B8070030031801302A
:1000C000B907003003180130BA07003003180130B7
:1000D000BB0701300310BB0CBA0CB90CB80CFF3EC7
:1000E000031D6A28FF303B05031D77287828572811
:1000F00084280130B7020130B2000310B80DB90DE9
:10010000BA0DBB0DB20B7D28BA1B872888288E2814
:100110000230370203188D288E2879283718912845
:1001200092289A28FF30B805FF30B9057F30BA050C
:10013000FF30BB050310B70C3708B200B301B401A0
:10014000B50118300310B20DB30DB40DB50DFF3E5F
:10015000031DA2283208B8043308B9043408BA04CD
:100160003508BB0436080319B628B728BC28B11FC8
:10017000BA28BB28BC28BB173B08B1003A08B0001E
:100180003908AF003808AE000800FF3083160313AB
:1001900085000F3086008701880189010A128A15BF
:1001A000D7200A128A110A128A15E0200A128A112F
:1001B0000A128A15E9200A128A110A128A157C216C
:1001C0000A128A110A128A15DA240A128A110030D8
:1001D0000A128A15D1210A128A117108F6007008D4
:1001E000F5000A30F7000030F8000A128A153021B5
:1001F0000A128A11750883160313D0007608D100FD
:100200000310D10CD00C0310D10CD00C0310D10C66
:10021000D00C50086A3EA00051080318013EFF3E72
:10022000A10001300A128A15D1210A128A1171081F
:1002300083160313DD007008DC006108F30060081A
:10024000F2000A30F0000030F1000A128A15F022A4
:100250000A128A118316031320087002D0002108A5
:10026000031C210A7102D100500883120313AE004F
:1002700083160313510883120313AF000030AF1B22
:10028000FF30B000B10001300A128A1109200A12B1
:100290008A1183120313310883160313D5008312C6
:1002A0000313300883160313D400831203132F089B
:1002B00083160313D300831203132E08831603132C
:1002C000D200550883120313D90083160313540870
:1002D00083120313D80083160313530883120313E6
:1002E000D70083160313520883120313D600831614
:1002F00003135E0883120313AE00831603135F0813
:1003000083120313AF000030AF1BFF30B000B10009
:1003100001300A128A1109200A128A11831203136A
:100320003108DD003008DC002F08DB002E08DA0081
:100330000A128A1163240A128A11831203135908BC
:1003400083160313DB008312031358088316031369
:10035000DA0083120313570883160313D90083129C
:100360000313560883160313D8005D088312031382
:10037000AD00831603135C0883120313AC000A124A
:100380008A1514210A128A11831203132D08831669
:100390000313DD00831203132C0883160313DC0000
:1003A000210883120313AD00831603132008831260
:1003B0000313AC000A128A1514210A128A1183123F
:1003C00003132D0883160313A100831203132C08B3
:1003D00083160313A0005B0883120313A90083167E
:1003E00003135A0883120313A80083160313590832
:1003F00083120313A70083160313580883120313F1
:10040000A6000A128A15C1230A128A118312031345
:100410002708AD002608AC000A128A1514210A121A
:100420008A11831203132C08AE002D08AF00003090
:10043000AF1BFF30B000B10001300A128A11092051
:100440000A128A1183120313310883160313DB0087
:1004500083120313300883160313DA008312031385
:100460002F0883160313D900831203132E08831653
:100470000313D8005B0883120313A9008316031328
:100480005A0883120313A800831603135908831212
:100490000313A70083160313580883120313A6003F
:1004A0000A128A15C1230A128A118312031327081C
:1004B00083160313D700831203132608831603132E
:1004C000D6005708CB005608CA00A030CC000F3029
:1004D000CD000A128A157B250A128A11831603138E
:1004E0005D08CB005C08CA00A030CC000F30CD0006
:1004F0000A128A1543260A128A110A128A155723EC
:100500000A128A11E2280A128A11002883120313A0
:1005100043088039C4004408CD004308C4004407A0
:10052000C5004508D400C21F962A972A982A541459
:10053000540803199C2A9D2AAD2A540A031DA12A96
:10054000A22AAA2A0030C3000030C2000030C10035
:100550000030C000C217C301B52A0030C30000300C
:10056000C2000030C1000030C0003F088039C40024
:100570004408CD063F08C4004407C5004508D5001F
:10058000BE1FC32AC42AC52A551455080319C92AEF
:10059000CA2ADA2A550A031DCE2ACF2AD72A0030C2
:1005A000BF000030BE000030BD000030BC00BE17F0
:1005B000BF01E22A0030BF000030BE000030BD00A5
:1005C0000030BC003F083E043D043C04031DE92A02
:1005D000EA2A032B0030C3000030C2000030C10003
:1005E0000030C0008030C2047F30C3044D08C40016
:1005F0004408C3044308BF004208BE004108BD00D0
:100600004008BC00622C5408031D072B082B112B3B
:100610000030BF000030BE000030BD000030BC0024
:10062000622C5408C400C5014508C700550844029F
:10063000C600031CC70346087F3ECE0047080318C8
:10064000013E003ECF004308CC004208CB004108E9
:10065000CA004008C9000030C3000030C2000030AA
:10066000C1000030C0000030D3000030D2000030A4
:10067000D1000030D000D501872B55080319412B3C
:10068000422B622B0130C4000310C90DCA0DCB0DE3
:10069000CC0DC40B442B0130C4000310C00DC10DA0
:1006A000C20DC30DC40B4D2BD31F572B582B592BE9
:1006B00040140130C4000310D00DD10DD20DD30D64
:1006C000C40B5B2B3F084C02031D702B3E084B02F2
:1006D000031D702B3D084A02031D702B3C08490284
:1006E000031C732B742B832B53173C08C9023D0842
:1006F000031C3D0FCA023E08031C3E0FCB023F08FD
:10070000031C3F0FCC020130C4004408D5071A3047
:100710005502031C8C2B8D2B3D2B4C084B044A049B
:1007200049040319942B952BB42B5014B42B01308E
:10073000C4000310C00DC10DC20DC30DC40B992B15
:10074000D31FA32BA42BA52B40140130C4000310EE
:10075000D00DD10DD20DD30DC40BA72BFF30CE077A
:100760000318CF0AFF30CF07C21FB72BB82B972B28
:10077000D501D31FBC2BBD2BD92BFF305005C40096
:10078000FF305105C500FF305205C6007F305305CC
:10079000C70047084604450444040319D02BD12B55
:1007A000D42BD501D50AD92B401CD72BD82BD92B2C
:1007B000D12B55080319DD2BDE2B0F2C0130C00780
:1007C000003003180130C107003003180130C207A0
:1007D000003003180130C307431CEF2BF02B0F2C04
:1007E0004008C4004108C5004208C6004308C700CD
:1007F0000130C800470DC70CC60CC50CC40CC80B93
:10080000FA2B4708C3004608C2004508C100440847
:10081000C0000130CE070318CF0A0030CF074F08C1
:10082000803AFF0080307F02031D182CFF304E02FB
:10083000031C1B2C1C2C2A2CFF3083120313CE000C
:100840000030CF000030C3000030C2000030C100D3
:100850000030C000831203134F08803AFF0080303D
:100860007F02031D352C01304E020318382C392C21
:10087000462C83120313CE01CF010030C300003099
:10088000C2000030C1000030C000CD01831203134C
:100890004E08C4004408D400541C4F2C502C522C39
:1008A000C217562C7F30C4004408C2055408C40047
:1008B0000310440CC5004508C3004D08C40044089B
:1008C000C304FA2A08008312031359088039DE0092
:1008D0005E08E3005908DE005E07DF005F08E900FC
:1008E000D81F732C742C752C691469080319792C82
:1008F0007A2C892C690A031D7E2C7F2C872C0030D2
:10090000D9000030D8000030D7000030D600D8170A
:10091000912C0030D9000030D8000030D7000030D2
:10092000D6005D088039DE005E08E3065D08DE0063
:100930005E07DF005F08E800DC1F9F2CA02CA12CC5
:10094000681468080319A52CA62CB52C680A031D89
:10095000AA2CAB2CB32C0030DD000030DC000030C2
:10096000DB000030DA00DC17BD2C0030DD00003089
:10097000DC000030DB000030DA0068080319C12C0D
:10098000C22CC72C6908031DC62CC72CD02C0030E4
:10099000D9000030D8000030D7000030D600C32F77
:1009A0005608DE005E08F0005C080A128A15552120
:1009B0000A128A11710883120313EF007008EE0007
:1009C0006E08DE00DF01E001E1016108E700600878
:1009D000E6005F08E5005E08E4006F08DE00DF0166
:1009E000E001E1016108ED006008EC005F08EB0048
:1009F0005E08EA005708DE005E08F0005B080A1295
:100A00008A1555210A128A11710883120313EF0007
:100A10007008EE006E08DE00DF01E001E1015E0813
:100A2000E4075F0803110318013E0319182DE507B9
:100A3000600803110318013E03191F2DE607610822
:100A400003110318013E0319262DE7076F08DE0086
:100A5000DF01E001E1015E08EA075F080311031806
:100A6000013E0319342DEB07600803110318013E02
:100A700003193B2DEC07610803110318013E03190C
:100A8000422DED075808DE005E08F0005A080A12F1
:100A90008A1555210A128A11710883120313EF0077
:100AA0007008EE006E08DE00DF01E001E1015E0883
:100AB000E4075F0803110318013E0319602DE507E1
:100AC000600803110318013E0319672DE60761084A
:100AD00003110318013E03196E2DE7076F08DE00AE
:100AE000DF01E001E1015E08EA075F080311031876
:100AF000013E03197C2DEB07600803110318013E2A
:100B00000319832DEC07610803110318013E031933
:100B10008A2DED070830DE000310E40DE50DE60D2B
:100B2000E70DDE0B8C2D5708DE005E08F0005A083A
:100B30000A128A1555210A128A11710883120313A9
:100B4000EF007008EE006E08DE006F08DF00E001C5
:100B5000E1015E08E4075F0803110318013E031971
:100B6000B22DE507600803110318013E0319B92DE2
:100B7000E607610803110318013E0319C02DE707BA
:100B80005608DE005E08F0005B080A128A1555213F
:100B90000A128A11710883120313EF007008EE0025
:100BA0006E08DE006F08DF00E001E1015E08E40787
:100BB0005F0803110318013E0319DF2DE5076008E4
:100BC00003110318013E0319E62DE607610803111E
:100BD0000318013E0319ED2DE7070830DE0003106E
:100BE000E40DE50DE60DE70DDE0BEF2D5608DE00FA
:100BF0005E08F0005A080A128A1555210A128A1155
:100C0000710883120313EF007008EE006E08DE0017
:100C10006F08DF00E001E1015E08E4075F080311EF
:100C20000318013E0319152EE50760080311031888
:100C3000013E03191C2EE607610803110318013E4B
:100C40000319232EE7075708DE005E08F0005C0852
:100C50000A128A1555210A128A1171088312031388
:100C6000EF007008EE006E08DE006F08DF00E001A4
:100C7000E1015E08EA075F0803110318013E03194A
:100C8000422EEB07600803110318013E0319492E99
:100C9000EC07610803110318013E0319502EED07FC
:100CA0005808DE005E08F0005B080A128A1555211C
:100CB0000A128A11710883120313EF007008EE0004
:100CC0006E08DE006F08DF00E001E1015E08EA0760
:100CD0005F0803110318013E03196F2EEB0760082C
:100CE00003110318013E0319762EEC076108031166
:100CF0000318013E03197D2EED075808DE005E083B
:100D0000F0005C080A128A1555210A128A1171082E
:100D100083120313EF007008EE006E08DE006F0808
:100D2000DF00E001E10108300310DE0DDF0DE00D12
:100D3000E10DFF3E031D942E5E08EA075F080311D4
:100D40000318013E0319A52EEB07600803110318D1
:100D5000013E0319AC2EEC07610803110318013E94
:100D60000319B32EED076408DE006508DF0066088E
:100D7000E0006708E10018300310E10CE00CDF0C24
:100D8000DE0CFF3E031DBC2E5E08EA075F08031160
:100D90000318013E0319CD2EEB0760080311031859
:100DA000013E0319D42EEC07610803110318013E1C
:100DB0000319DB2EED070830DE000310E40DE50D0E
:100DC000E60DE70DDE0BDD2E69086807DE00DF01AA
:100DD000DF0D5E08823EEE005F080318013EFF3E15
:100DE000EF000F2F0130DE000310EA0DEB0DEC0DCC
:100DF000ED0DDE0BF42EE71FFE2EFF2E002F6A14E2
:100E00000130DE000310E40DE50DE60DE70DDE0B0D
:100E1000022FFF30EE070318EF0AFF30EF07EC1F39
:100E2000122F132FF22EE801E71F172F182F342F40
:100E3000FF306405DE00FF306505DF00FF3066052A
:100E4000E0007F306705E100610860045F045E0434
:100E500003192B2F2C2F2F2FE801E80A342F6A1C9F
:100E6000322F332F342F2C2F68080319382F392FA6
:100E70006A2F0130EA07003003180130EB07003019
:100E800003180130EC07003003180130ED076D1C2A
:100E90004A2F4B2F6A2F6A08DE006B08DF006C08B0
:100EA000E0006D08E1000130E200610DE10CE00CB2
:100EB000DF0CDE0CE20B552F6108ED006008EC0042
:100EC0005F08EB005E08EA000130EE070318EF0A46
:100ED0000030EF076F08803AFF0080307F02031D6B
:100EE000732FFF306E02031C762F772F822F7F30F7
:100EF00083120313ED008030EC000030EB00003073
:100F0000EA00B72F831203136F08803AFF00803086
:100F10007F02031D8D2F01306E020318902F912F39
:100F20009D2F003083120313ED000030EC000030E1
:100F3000EB000030EA00E301B72F831203136E08C1
:100F4000DE005E08E900FF30EA05FF30EB057F3088
:100F5000EC050030ED05691CAE2FAF2FB02FEC175C
:100F60006908DE0003105E0CDF005F08ED00630817
:100F7000DE005E08ED046D08D9006C08D8006B082F
:100F8000D7006A08D6000800831603130A128A11D4
:100F900003200A128A11DE000A128A1104200A12A2
:100FA0008A11DF000A128A1105200A128A11E00054
:100FB0000A128A1106200A128A11E1000A128A1105
:100FC00007200A128A11E2000A128A1108200A1266
:100FD0008A11E300831790308400B0300A128A151A
:100FE000CF200A128A118313A0308400CA300A125B
:100FF0008A15CF200A128A1183010A128A11C52884
:10100000FF1B0A2883137F1883170008840A03191B
:10101000FF0A080008308A000408840A82070034A6
:10102000013400340A34003464340034E8340334C6
:10103000103427343F3406345B344F3466346D3417
:101040007D3407347F346F34203420344B345034B3
:101050003A340034543445344D3450343A34003446
:0610600025346434003465
:10119200F0007008831203138800080064008001C5
:1011A200840A0406031900340406D028803083160A
:1011B20003139F00C130831203139F0008008312A0
:1011C2000313971517151215831603130711080039
:1011D200831203139D151D151214921012158316F6
:1011E200031387100800F100831203138914710896
:1011F2000A128A15C9200A128A15831203130910CA
:10120200891089140800F1008312031389147108EC
:101212000A128A15C9200A128A15831203130914A5
:1012220089108914080083120313AD1F19291A2982
:101232001C29AC01AD012D08803AFF0084307F02E9
:10124200031D252900302C02031C282929292F29B6
:10125200FF3083120313AC000330AD000800F90124
:10126200FA01751C352936293C297708F907031834
:10127200FA0A7808FA0701300310F70DF80DFF3E5D
:10128200031D3D2901300310F60CF50CFF3E031D32
:10129200442975087604031D4F29502932297A08FA
:1012A200F6007908F5000800F800F401F50170086D
:1012B200F200F3017208F6007308F700781C622945
:1012C200632969297608F4070318F50A7708F507F0
:1012D20001300310F60DF70DFF3E031D6A290310BE
:1012E200F80C7808031D762977295F297508F10023
:1012F2007408F00008000A128A1505220A128A15DB
:1013020080300A128A15F4200A128A151B30F20064
:101312008030F3000A128A15A6210A128A15C030FB
:101322000A128A15F4200A128A151530F20080304A
:10133200F3000A128A15A6210A128A1585300A12AA
:101342008A15F4200A128A150800F501BD297508CC
:101352007207840073080318730AFF000A128A15C1
:1013620000200A128A150A128A1504210A128A1505
:101372000130F4007408F5077508720784007308D9
:101382000318730A83120313FF000A128A1500203E
:101392000A128A15003A031DCF29D029A82908006C
:1013A200F40008307402031CD729D829DB29F00184
:1013B200F101042AC530F2007208831203139F055B
:1013C2007408F20002300310F20DFF3E031DE429FF
:1013D2000310720DF30073089F040330F30097307B
:1013E200F200F20BF229F30BF229F729831203130D
:1013F2001F151F19FD29FE29FA291E08F10083165F
:1014020003131E08F0000800831203138910091049
:10141200891438300A128A15F4200A128A153830D3
:101422000A128A15F4200A128A1538300A128A150D
:10143200F4200A128A1508300A128A15F4200A12B8
:101442008A150F300A128A15F4200A128A15013001
:101452000A128A15F4200A128A1538300A128A15DD
:10146200F4200A128A1580300A128A15F4200A1210
:101472008A150800831203132608F9002708FA00C8
:101482002808FB002908FC0002300310F90DFA0DB0
:10149200FB0DFC0DFF3E031D462A02300310F90D21
:1014A200FA0DFB0DFC0DFF3E031D4F2A7C08F300D5
:1014B2007B08F2007A08F1007908F0000030F700AA
:1014C2003D30F6000930F5000030F4000A128A15AA
:1014D2003D240A128A157008FF3E831603139200F8
:1014E2000800780879040319772A782AA72AFD01C7
:1014F200FD0A862A01300310F80DF90DFF3E031D87
:101502007C2A0130FC007C08FD07F91F892A8A2AFF
:101512007B2A79087B02031D902A78087A02031C31
:10152200932A942A9A2A7808FA027908031CFB0360
:10153200FB0201300310F90CF80CFF3E031D9B2A3D
:101542000130FD02031DA62AA72A8A2A7B08F90078
:101552007A08F8000800F501F60170087104031911
:10156200B32AB42AEB2AF701F70AC22A0130031080
:10157200F00DF10DFF3E031DB82A0130F40074088E
:10158200F707F11FC52AC62AB72A01300310F50D45
:10159200F60DFF3E031DC72A71087302031DD32AED
:1015A20070087202031CD62AD72ADE2A7008F202B9
:1015B2007108031CF303F302751401300310F10CDC
:1015C200F00CFF3E031DDF2A0130F702031DEA2A59
:1015D200EB2AC62A7608F1007508F0000800F60129
:1015E200F11FF42AF52AFC2AF009F109F00A03197D
:1015F200F10AF601F60AF31FFF2A002B092BF20962
:10160200F309F20A0319F30A0130F4007408F6062A
:10161200F701F801700871040319102B112B482BE4
:10162200F501F50A1F2B01300310F00DF10DFF3EFD
:10163200031D152B0130F4007408F507F11F222B4E
:10164200232B142B01300310F70DF80DFF3E031D61
:10165200242B71087302031D302B70087202031CC5
:10166200332B342B3B2B7008F2027108031CF3035B
:10167200F302771401300310F10CF00CFF3E031D4E
:101682003C2B0130F502031D472B482B232B7608F8
:1016920003194C2B4D2B522BF709F809F70A0319A2
:1016A200F80A7808F1007708F0000800AA308312DF
:1016B2000313A0000030A1002130AE002E08A200CA
:1016C20083160313610883120313A4008316031302
:1016D200600883120313A3000A128A150B270A1249
:1016E2008A15903083120313A0000130A10021302B
:1016F200AE002E08A200831603135F0883120313A1
:10170200A400831603135E0883120313A3000A12B4
:101712008A150B270A128A1585300A128A15F420B7
:101722000A128A15AA30F2000030F3000A128A1552
:10173200A6210A128A15C5300A128A15F4200A1245
:101742008A159030F2000130F3000A128A15A621A0
:101752000A128A1583160313620363040319B22B58
:10176200B32BBA2B89300A128A15F4200A128A1571
:10177200C02BC9300A128A15F4200A128A150800F1
:10178200031083120313280D290DF9007908AB0009
:101792002B08031DCD2BCE2BD72B0030A9000030F8
:1017A200A8000030A7000030A6003C2C2608F90053
:1017B2002708FA002808FB002908FC001F30031044
:1017C200FC0CFB0CFA0CF90CFF3E031DE02B790814
:1017D200FD007D08AA00A817FF30A605FF30A70567
:1017E200FF30A8050030A9059630AB02AB1FFA2BDB
:1017F200FB2B152C2B08803A973E0318012C022C48
:10180200032CCE2B01300310A90CA80CA70CA60C9C
:10181200FF3E031D042C0130F9007908AB07031DBC
:10182200132C142C032C2C2C20302B02031C1A2CCE
:101832001B2C272CCE2B0130F9000310A60DA70D6F
:10184200A80DA90DF90B1E2C0130AB022B08031DAC
:101852002B2C2C2C1C2C2A080319302C312C3C2C20
:10186200A609A709A809A909A60A0319A70A03191B
:10187200A80A0319A90A080083120313A101F31F7E
:10188200432C442C512CF009F109F209F309F00A16
:101892000319F10A0319F20A0319F30AA101A10AB1
:1018A200F71F542C552C642CF409F509F609F70995
:1018B200F40A0319F50A0319F60A0319F70A0130A3
:1018C200F8007808A1060030A5000030A40000301E
:1018D200A3000030A200730872047104700403199B
:1018E200732C742CC12CA001A00A842C0130F800A6
:1018F2000310F00DF10DF20DF30DF80B792C013000
:10190200F8007808A007F31F872C882C772C013069
:10191200F8000310A20DA30DA40DA50DF80B8A2C3F
:1019220073087702031D9F2C72087602031D9F2CF9
:1019320071087502031D9F2C70087402031CA22CEF
:10194200A32CB22C7008F4027108031C710FF5026B
:101952007208031C720FF6027308031C730FF7025E
:10196200221401300310F30CF20CF10CF00CFF3EC8
:10197200031DB32C0130A002031DC02CC12C882CE6
:1019820021080319C52CC62CD12CA209A309A4092C
:10199200A509A20A0319A30A0319A40A0319A50A8D
:1019A2002508F3002408F2002308F1002208F000C1
:1019B2000800003083120313061801308316031344
:1019C200A80028080319E62CE72CFF2C2908031D80
:1019D200EB2CEC2CFF2C620363040319F12CF22C88
:1019E200F92C6430E0070318E10A0030E107FF2C0C
:1019F2006430DE070318DF0A0030DF072808F00032
:101A02007008A90000308312031386180130831670
:101A12000313A600260803190F2D102D282D2708C1
:101A2200031D142D152D282D6203630403191A2D8D
:101A32001B2D222D9C30E0070318E10AFF30E1073D
:101A4200282D9C30DE070318DF0AFF30DF07260847
:101A5200F0007008A700003083120313061901304A
:101A620083160313A40024080319382D392D512D90
:101A72002508031D3D2D3E2D512D620363040319DC
:101A8200432D442D4B2D0A30E0070318E10A0030A4
:101A9200E107512D0A30DE070318DF0A0030DF07A5
:101AA2002408F0007008A500003083120313861981
:101AB200013083160313A20022080319612D622D3F
:101AC200762D2308031D662D672D762D6203630490
:101AD200031D6C2D6D2D722D0230E2000030E300EB
:101AE200762D0130E2000030E3002208F000700899
:101AF200A3000800831603134C0883120313A600E5
:101B0200831603134D0883120313A700A801A9012A
:101B12000A128A153B220A128A150430831603130D
:101B22004B02003003194A020318982D992D422EB8
:101B32004A0883120313AE00831603134B08831261
:101B42000313AF00B001B10100300A128A1109205B
:101B52000A128A15831203133108C3003008C20027
:101B62002F08C1002E08C0004430BF007F30BE00E5
:101B7200C030BD000030BC000A128A1186220A124F
:101B82008A15831203133F08DD003E08DC003D087E
:101B9200DB003C08DA000030F7003D30F600093087
:101BA200F5000030F400831603134D08CF004C08F3
:101BB200CE000310CE0DCF0D0310CE0DCF0D4E086B
:101BC200F0004F08F100F201F3010A128A153D24D8
:101BD2000A128A15730883120313B1007208B00047
:101BE2007108AF007008AE0001300A128A11092094
:101BF2000A128A15831203133108D9003008D8005B
:101C02002F08D7002E08D6000A128A1163240A125E
:101C12008A15831203135908A9005808A800570807
:101C2200A7005608A6000A128A15C1230A128A15AD
:101C320083120313270883160313CB0083120313A3
:101C4200260883160313CA008312031397128316FE
:101C520003134A182D2E312E831203131716342E16
:101C6200831203131712831603134A08CE0002309D
:101C72000310CE0CFF3E031D392E4E0883120313B0
:101C820095000800831603134C0883120313A60061
:101C9200831603134D0883120313A700A801A90199
:101CA2000A128A153B220A128A150430831603137C
:101CB2004B02003003194A020318602E612E0A2FCC
:101CC2004A0883120313AE00831603134B088312D0
:101CD2000313AF00B001B10100300A128A110920CA
:101CE2000A128A15831203133108C3003008C20096
:101CF2002F08C1002E08C0004430BF007F30BE0054
:101D0200C030BD000030BC000A128A1186220A12BD
:101D12008A15831203133F08DD003E08DC003D08EC
:101D2200DB003C08DA000030F7003D30F6000930F5
:101D3200F5000030F400831603134D08CF004C0861
:101D4200CE000310CE0DCF0D0310CE0DCF0D4E08D9
:101D5200F0004F08F100F201F3010A128A153D2446
:101D62000A128A15730883120313B1007208B000B5
:101D72007108AF007008AE0001300A128A11092002
:101D82000A128A15831203133108D9003008D800C9
:101D92002F08D7002E08D6000A128A1163240A12CD
:101DA2008A15831203135908A9005808A800570876
:101DB200A7005608A6000A128A15C1230A128A151C
:101DC20083120313270883160313CB008312031312
:101DD200260883160313CA00831203139D12831667
:101DE20003134A18F52EF92E831203131D16FC2E27
:101DF200831203131D12831603134A08CE00023006
:101E02000310CE0CFF3E031D012F4E088312031355
:101E12009B000800233083120313A5002508A800A5
:101E2200E72F25302D060319172F182F282F2D08DD
:101E3200A500200884008317211C83132508800035
:101E42000130A0070318A10A0030A107E72FA9015A
:101E52000130A207FF30220784000A128A150A20E5
:101E62000A128A15AD00A500A6012608003A031938
:101E72003B2FE72F2508003A0319F92F643A03197B
:101E8200462F0D3A0319462FE72F280884008313A3
:101E92000008AB00840A0008AC000230A500250847
:101EA200A807AC1F552F562F5F2F0330A50025081A
:101EB200A904AB09AC09AB0A0319AC0AAD01AD0A1E
:101EC2002D08A5002507013E84000A128A150A2062
:101ED2000A128A15A6000A128A150A200A128A15FF
:101EE200A70027082C02031D782F26082B020318AF
:101EF2007B2F7C2F7D2F872F0130A5002508AD0772
:101F020005302D06031D862F872F612F29080339DF
:101F120003198C2F8D2F9C2F2D30A50020088400B3
:101F22008317211C8313250880000130A0070318A2
:101F3200A10A0030A1072D08A5002508AA00DE2F5E
:101F42000A30F8000030F9002A08A5002507013EF2
:101F520084000A128A150A200A128A15F0000A124F
:101F62008A150A200A128A15F1002C08F3002B08A0
:101F7200F2000A128A15AC220A128A157108FB00B5
:101F82007008FA000A128A1572220A128A15780853
:101F9200303E83120313A6002608AD002D08A500CB
:101FA200200884008317211C831325088000013038
:101FB200A0070318A10A0030A107FF30A5002508D9
:101FC200AA072A0A031DE62FE72FA12F0130A20735
:101FD200FF30220784000A128A150A200A128A1583
:101FE200A5002508AD002D08031DF82FF92F122F8B
:0E1FF200200884008317211C8313800108003F
:02400E003A3F37
:00000001FF
