:060000000A128A11D82F3C
:10000C00831203139D151D151214921012158316CD
:10001C00031387100800831603132208831203139B
:10002C00A60083160313230883120313A700A80149
:10003C00A9010A128A15B3220A128A1104308316F6
:10004C000313210200300319200203182E282F2835
:10005C00D828200883120313AE008316031321083B
:10006C0083120313AF00B001B10100300A128A15DC
:10007C007E250A128A11831203133108C30030083B
:10008C00C2002F08C1002E08C0004430BF007F30D2
:10009C00BE00C030BD000030BC000A128A119A228A
:1000AC000A128A11831203133F08DD003E08DC009C
:1000BC003D08DB003C08DA000030F7003D30F6006C
:1000CC000930F5000030F400831603132308A50053
:1000DC002208A4000310A40DA50D0310A40DA50D5A
:1000EC002408F0002508F100F201F3010A128A1528
:1000FC00E1240A128A11730883120313B1007208E7
:10010C00B0007108AF007008AE0001300A128A15F9
:10011C007E250A128A11831203133108D900300884
:10012C00D8002F08D7002E08D6000A128A1177247F
:10013C000A128A11831203135908A9005808A8003F
:10014C005708A7005608A6000A128A1565240A1239
:10015C008A1183120313270883160313A100831239
:10016C000313260883160313A000831203139D1296
:10017C00831603132018C328C728831203131D16D4
:10018C00CA28831203131D12831603132008A4001C
:10019C0002300310A40CFF3E031DCF282408831249
:1001AC0003139B000800FF308316031385000F30E8
:1001BC0086008701880189010130C2000030C3002C
:1001CC000A128A154E210A128A110A128A1557210F
:1001DC000A128A110A128A1106200A128A110A12AC
:1001EC008A15D9210A128A110A128A15A9230A1210
:1001FC008A1100300A128A1549220A128A117108D2
:10020C00F6007008F5000A30F7000030F8000A120A
:10021C008A15FD210A128A11750883160313A6008C
:10022C007608A7000310A70CA60C0310A70CA60CAD
:10023C000310A70CA60C26086A3EB4002708031866
:10024C00013EFF3EB50001300A128A1549220A12FE
:10025C008A11710883160313B3007008B2004108A9
:10026C00F3004008F2000A30F0000030F1000A12EE
:10027C008A15FE230A128A1183160313340870029E
:10028C00A6003508031C350A7102A7002608831244
:10029C000313AE0083160313270883120313AF0056
:1002AC000030AF1BFF30B000B10001300A128A15CC
:1002BC007E250A128A118312031331088316031345
:1002CC00AB0083120313300883160313AA008312A6
:1002DC0003132F0883160313A900831203132E088C
:1002EC0083160313A800423083120313D900C830BD
:1002FC00D8000030D7000030D600831603132B082B
:10030C0083120313DD00831603132A0883120313CD
:10031C00DC0083160313290883120313DB008316F6
:10032C000313280883120313DA000A128A117724A4
:10033C000A128A1183120313590883160313B1008E
:10034C0083120313580883160313B000831203138C
:10035C00570883160313AF00831203135608831632
:10036C000313AE00330883120313AD00831603137B
:10037C00320883120313AC000A128A159B210A124D
:10038C008A11831203132D0883160313B3008312EF
:10039C0003132C0883160313B200350883120313BE
:1003AC00AD0083160313340883120313AC000A1236
:1003BC008A159B210A128A11831203132D088316A6
:1003CC000313B500831203132C0883160313B40014
:1003DC00310883120313A900831603133008831208
:1003EC000313A800831603132F0883120313A7000B
:1003FC00831603132E0883120313A6000A128A1500
:10040C0065240A128A11831203132708AD002608EB
:10041C00AC000A128A159B210A128A11831203134B
:10042C002C08AE002D08AF000030AF1BFF30B00021
:10043C00B10001300A128A157E250A128A11831224
:10044C000313310883160313B1008312031330080E
:10045C0083160313B000831203132F0883160313A0
:10046C00AF00831203132E0883160313AE0031085A
:10047C0083120313A900831603133008831203138A
:10048C00A800831603132F0883120313A7008316E7
:10049C0003132E0883120313A6000A128A1565246F
:1004AC000A128A1183120313270883160313AD0053
:1004BC0083120313260883160313AC002D08A10026
:1004CC002C08A000A030A2000F30A3000A128A153D
:1004DC003A260A128A11831603133308A100320834
:1004EC00A000A030A2000F30A3000A128A11112024
:1004FC000A128A110A128A1524230A128A118316E7
:10050C000313410883120313A1008316031340083D
:10051C0083120313A0000A128A1502270A128A11E9
:10052C00FA280A128A11002883120313430880390F
:10053C00C4004408CD004308C4004407C500450866
:10054C00D400C21FAA2AAB2AAC2A5414540803198B
:10055C00B02AB12AC12A540A031DB52AB62ABE2ACA
:10056C000030C3000030C2000030C1000030C000B9
:10057C00C217C301C92A0030C3000030C2000030CA
:10058C00C1000030C0003F088039C4004408CD06CB
:10059C003F08C4004407C5004508D500BE1FD72A34
:1005AC00D82AD92A551455080319DD2ADE2AEE2A31
:1005BC00550A031DE22AE32AEB2A0030BF00003063
:1005CC00BE000030BD000030BC00BE17BF01F62AD3
:1005DC000030BF000030BE000030BD000030BC0059
:1005EC003F083E043D043C04031DFD2AFE2A172B44
:1005FC000030C3000030C2000030C1000030C00029
:10060C008030C2047F30C3044D08C4004408C304C6
:10061C004308BF004208BE004108BD004008BC00B2
:10062C00762C5408031D1B2B1C2B252B0030BF00D4
:10063C000030BE000030BD000030BC00762C5408E9
:10064C00C400C5014508C70055084402C600031C78
:10065C00C70346087F3ECE0047080318013E003E04
:10066C00CF004308CC004208CB004108CA00400828
:10067C00C9000030C3000030C2000030C10000309F
:10068C00C0000030D3000030D2000030D100003068
:10069C00D000D5019B2B55080319552B562B762BC7
:1006AC000130C4000310C90DCA0DCB0DCC0DC40B09
:1006BC00582B0130C4000310C00DC10DC20DC30D69
:1006CC00C40B612BD31F6B2B6C2B6D2B4014013087
:1006DC00C4000310D00DD10DD20DD30DC40B6F2B54
:1006EC003F084C02031D842B3E084B02031D842B38
:1006FC003D084A02031D842B3C084902031C872B2E
:10070C00882B972B53173C08C9023D08031C3D0F3F
:10071C00CA023E08031C3E0FCB023F08031C3F0FCE
:10072C00CC020130C4004408D5071A305502031C12
:10073C00A02BA12B512B4C084B044A044904031940
:10074C00A82BA92BC82B5014C82B0130C4000310A4
:10075C00C00DC10DC20DC30DC40BAD2BD31FB72BD8
:10076C00B82BB92B40140130C4000310D00DD10D9F
:10077C00D20DD30DC40BBB2BFF30CE070318CF0A01
:10078C00FF30CF07C21FCB2BCC2BAB2BD501D31FEC
:10079C00D02BD12BED2BFF305005C400FF30510571
:1007AC00C500FF305205C6007F305305C70047080F
:1007BC004604450444040319E42BE52BE82BD5012E
:1007CC00D50AED2B401CEB2BEC2BED2BE52B550818
:1007DC000319F12BF22B232C0130C0070030031826
:1007EC000130C107003003180130C2070030031874
:1007FC000130C307431C032C042C232C4008C400D9
:10080C004108C5004208C6004308C7000130C800B3
:10081C00470DC70CC60CC50CC40CC80B0E2C4708D6
:10082C00C3004608C2004508C1004408C00001309E
:10083C00CE070318CF0A0030CF074F08803AFF00CD
:10084C0080307F02031D2C2CFF304E02031C2F2CFA
:10085C00302C3E2CFF3083120313CE000030CF001F
:10086C000030C3000030C2000030C1000030C000B6
:10087C00831203134F08803AFF0080307F02031D60
:10088C00492C01304E0203184C2C4D2C5A2C83123F
:10089C000313CE01CF010030C3000030C200003082
:1008AC00C1000030C000CD01831203134E08C400F8
:1008BC004408D400541C632C642C662CC2176A2C7C
:1008CC007F30C4004408C2055408C4000310440C13
:1008DC00C5004508C3004D08C4004408C3040E2BD2
:1008EC0008008312031359088039DE005E08E30008
:1008FC005908DE005E07DF005F08E900D81F872C6F
:10090C00882C892C6914690803198D2C8E2C9D2C2C
:10091C00690A031D922C932C9B2C0030D9000030BB
:10092C00D8000030D7000030D600D817A52C0030E6
:10093C00D9000030D8000030D7000030D6005D0858
:10094C008039DE005E08E3065D08DE005E07DF002E
:10095C005F08E800DC1FB32CB42CB52C68146808B5
:10096C000319B92CBA2CC92C680A031DBE2CBF2C38
:10097C00C72C0030DD000030DC000030DB00003024
:10098C00DA00DC17D12C0030DD000030DC00003048
:10099C00DB000030DA0068080319D52CD62CDB2CD0
:1009AC006908031DDA2CDB2CE42C0030D900003054
:1009BC00D8000030D7000030D600D72F5608DE0004
:1009CC005E08F0005C080A128A1522220A128A11AB
:1009DC00710883120313EF007008EE006E08DE003E
:1009EC00DF01E001E1016108E7006008E6005F0853
:1009FC00E5005E08E4006F08DE00DF01E001E101C4
:100A0C006108ED006008EC005F08EB005E08EA008E
:100A1C005708DE005E08F0005B080A128A152222D5
:100A2C000A128A11710883120313EF007008EE008A
:100A3C006E08DE00DF01E001E1015E08E4075F08FB
:100A4C0003110318013E03192C2DE507600803114F
:100A5C000318013E0319332DE6076108031103182F
:100A6C00013E03193A2DE7076F08DE00DF01E001B4
:100A7C00E1015E08EA075F0803110318013E031940
:100A8C00482DEB07600803110318013E03194F2D85
:100A9C00EC07610803110318013E0319562DED07ED
:100AAC005808DE005E08F0005A080A128A15222245
:100ABC000A128A11710883120313EF007008EE00FA
:100ACC006E08DE00DF01E001E1015E08E4075F086B
:100ADC0003110318013E0319742DE5076008031177
:100AEC000318013E03197B2DE60761080311031857
:100AFC00013E0319822DE7076F08DE00DF01E001DC
:100B0C00E1015E08EA075F0803110318013E0319AF
:100B1C00902DEB07600803110318013E0319972D64
:100B2C00EC07610803110318013E03199E2DED0714
:100B3C000830DE000310E40DE50DE60DE70DDE0BCD
:100B4C00A02D5708DE005E08F0005A080A128A151C
:100B5C0022220A128A11710883120313EF00700803
:100B6C00EE006E08DE006F08DF00E001E1015E08B8
:100B7C00E4075F0803110318013E0319C62DE507AE
:100B8C00600803110318013E0319CD2DE607610817
:100B9C0003110318013E0319D42DE7075608DE0094
:100BAC005E08F0005B080A128A1522220A128A11CA
:100BBC00710883120313EF007008EE006E08DE005C
:100BCC006F08DF00E001E1015E08E4075F08031134
:100BDC000318013E0319F32DE507600803110318F0
:100BEC00013E0319FA2DE607610803110318013EB3
:100BFC000319012EE7070830DE000310E40DE50DA4
:100C0C00E60DE70DDE0B032E5608DE005E08F00045
:100C1C005A080A128A1522220A128A1171088312A2
:100C2C000313EF007008EE006E08DE006F08DF00A3
:100C3C00E001E1015E08E4075F0803110318013EBF
:100C4C000319292EE507600803110318013E031947
:100C5C00302EE607610803110318013E0319372EE5
:100C6C00E7075708DE005E08F0005C080A128A15D8
:100C7C0022220A128A11710883120313EF007008E2
:100C8C00EE006E08DE006F08DF00E001E1015E0897
:100C9C00EA075F0803110318013E0319562EEB07F0
:100CAC00600803110318013E03195D2EEC0761085F
:100CBC0003110318013E0319642EED075808DE00DA
:100CCC005E08F0005B080A128A1522220A128A11A9
:100CDC00710883120313EF007008EE006E08DE003B
:100CEC006F08DF00E001E1015E08EA075F0803110D
:100CFC000318013E0319832EEB0760080311031838
:100D0C00013E03198A2EEC07610803110318013EFA
:100D1C000319912EED075808DE005E08F0005C0800
:100D2C000A128A1522220A128A11710883120313DD
:100D3C00EF007008EE006E08DE006F08DF00E001C7
:100D4C00E10108300310DE0DDF0DE00DE10DFF3E7B
:100D5C00031DA82E5E08EA075F0803110318013E65
:100D6C000319B92EEB07600803110318013E031990
:100D7C00C02EEC07610803110318013E0319C72E9E
:100D8C00ED076408DE006508DF006608E000670810
:100D9C00E10018300310E10CE00CDF0CDE0CFF3E20
:100DAC00031DD02E5E08EA075F0803110318013EED
:100DBC000319E12EEB07600803110318013E031918
:100DCC00E82EEC07610803110318013E0319EF2EFE
:100DDC00ED070830DE000310E40DE50DE60DE70D20
:100DEC00DE0BF12E69086807DE00DF01DF0D5E08FF
:100DFC00823EEE005F080318013EFF3EEF00232FFA
:100E0C000130DE000310EA0DEB0DEC0DED0DDE0BE9
:100E1C00082FE71F122F132F142F6A140130DE0036
:100E2C000310E40DE50DE60DE70DDE0B162FFF307C
:100E3C00EE070318EF0AFF30EF07EC1F262F272FC2
:100E4C00062FE801E71F2B2F2C2F482FFF306405AE
:100E5C00DE00FF306505DF00FF306605E0007F3007
:100E6C006705E100610860045F045E0403193F2F0D
:100E7C00402F432FE801E80A482F6A1C462F472FC2
:100E8C00482F402F680803194C2F4D2F7E2F01300F
:100E9C00EA07003003180130EB070030031801306B
:100EAC00EC07003003180130ED076D1C5E2F5F2F2F
:100EBC007E2F6A08DE006B08DF006C08E0006D080E
:100ECC00E1000130E200610DE10CE00CDF0CDE0C06
:100EDC00E20B692F6108ED006008EC005F08EB0085
:100EEC005E08EA000130EE070318EF0A0030EF0746
:100EFC006F08803AFF0080307F02031D872FFF3080
:100F0C006E02031C8A2F8B2F962F7F3083120313B4
:100F1C00ED008030EC000030EB000030EA00CB2F0D
:100F2C00831203136F08803AFF0080307F02031D89
:100F3C00A12F01306E020318A42FA52FB12F003062
:100F4C0083120313ED000030EC000030EB00003096
:100F5C00EA00E301CB2F831203136E08DE005E0858
:100F6C00E900FF30EA05FF30EB057F30EC0500307F
:100F7C00ED05691CC22FC32FC42FEC176908DE00C6
:100F8C0003105E0CDF005F08ED006308DE005E08F6
:100F9C00ED046D08D9006C08D8006B08D7006A08FE
:100FAC00D6000800831603130A128A1544210A126C
:100FBC008A11BE000A128A1545210A128A11BF0035
:100FCC000A128A1546210A128A11C0000A128A15C1
:100FDC0047210A128A11C100B401B501B601B7014B
:100FEC00B801B901BA01BB01BC01BD0183010A12F0
:100FFC008A11D92808308A000408840A8207003430
:10100C003F3406345B344F3466346D347D340734EE
:10101C007F346F34563461346C346F347234203412
:10102C00543445344D3450340034563461346C34BB
:10103C006F34723420344B34503400342034203428
:10104C004B3450343A340034543445344D345034E9
:04105C003A340034EE
:10128800643400345E341034F000700883120313A1
:10129800880008008030831603139F00C130831232
:1012A80003139F00080083120313971517151215CF
:1012B8008316031307110800F1008312031389141E
:1012C80071080A128A1548210A128A158312031313
:1012D8000910891089140800F10083120313891476
:1012E80071080A128A1548210A128A1583120313F3
:1012F8000914891089140800F70075037604031D82
:10130800862987298E2985300A128A1560210A12B2
:101318008A159429C5300A128A1560210A128A157D
:1013280077080A128A15B7210A128A15080083124B
:101338000313AD1FA029A129A329AC01AD012D08D4
:10134800803AFF0084307F02031DAC2900302C0254
:10135800031CAF29B029B629FF3083120313AC0050
:101368000330AD000800F400F301CB2973087407BB
:1013780084000A128A1500200A128A150A128A1590
:1013880070210A128A150130F2007208F3077308F7
:10139800740784000A128A1500200A128A15003A76
:1013A800031DD729D829BA2908000A128A157D22CF
:1013B8000A128A1580300A128A1560210A128A15C3
:1013C80025300A128A15B7210A128A15C0300A1266
:1013D8008A1560210A128A151F300A128A15B72148
:1013E8000A128A1585300A128A1560210A128A158E
:1013F8000800F901FA01751C022A032A092A77084C
:10140800F9070318FA0A7808FA0701300310F70DEC
:10141800F80DFF3E031D0A2A01300310F60CF50CE7
:10142800FF3E031D112A75087604031D1C2A1D2A78
:10143800FF297A08F6007908F5000800F800F40199
:10144800F5017008F200F3017208F6007308F7005E
:10145800781C2F2A302A362A7608F4070318F50A4A
:101468007708F50701300310F60DF70DFF3E031D51
:10147800372A0310F80C7808031D432A442A2C2A1B
:101488007508F1007408F0000800F40008307402D0
:10149800031C4F2A502A532AF001F1017C2AC53037
:1014A800F2007208831203139F057408F2000230D9
:1014B8000310F20DFF3E031D5C2A0310720DF300AA
:1014C80073089F040330F3009730F200F20B6A2A86
:1014D800F30B6A2A6F2A831203131F151F19752A23
:1014E800762A722A1E08F100831603131E08F000DC
:1014F80008008312031389100910891438300A125E
:101508008A1560210A128A1538300A128A15602154
:101518000A128A1538300A128A1560210A128A15A9
:1015280008300A128A1560210A128A150F300A1229
:101538008A1560210A128A1501300A128A1560215B
:101548000A128A1538300A128A1560210A128A1579
:1015580080300A128A1560210A128A15080083123F
:1015680003132608F9002708FA002808FB002908B1
:10157800FC0002300310F90DFA0DFB0DFC0DFF3EC7
:10158800031DBE2A02300310F90DFA0DFB0DFC0DE8
:10159800FF3E031DC72A7C08F3007B08F2007A0887
:1015A800F1007908F0000030F7003D30F60009300E
:1015B800F5000030F4000A128A15E1240A128A158F
:1015C8007008FF3E83160313920008007008710428
:1015D8000319EF2AF02A1F2BF501F50AFE2A01301C
:1015E8000310F00DF10DFF3E031DF42A0130F40045
:1015F8007408F507F11F012B022BF32A71087302F7
:10160800031D082B70087202031C0B2B0C2B122BCA
:101618007008F2027108031CF303F302013003108F
:10162800F10CF00CFF3E031D132B0130F502031DD6
:101638001E2B1F2B022B7308F1007208F000080004
:101648000030831203138619013083160313BC007C
:101658003C080319302B312B452B3D08031D352B36
:10166800362B452B42034304031D3B2B3C2B412BBC
:101678000230C2000030C300452B0130C2000030E8
:10168800C3003C08F8007808BD004203430403196E
:101698004E2B4F2B5A2B0130F5000030F6000B3043
:1016A8000A128A1580210A128A15642B0230F50065
:1016B8000030F60016300A128A1580210A128A159F
:1016C8000800FB01FC017608770403196C2B6D2BCD
:1016D800A42BFD01FD0A7B2B01300310F60DF70D3D
:1016E800FF3E031D712B0130FA007A08FD07F71F32
:1016F8007E2B7F2B702B01300310FB0DFC0DFF3E62
:10170800031D802B77087902031D8C2B760878023D
:10171800031C8F2B902B972B7608F8027708031C55
:10172800F903F9027B1401300310F70CF60CFF3EA5
:10173800031D982B0130FD02031DA32BA42B7F2B27
:101748007C08F7007B08F6000800003083120313BA
:101758000618013083160313BA003A080319B52B8B
:10176800B62BC12B3B08031DBA2BBB2BC12B6430F6
:10177800C0070318C10A0030C1073A08F000700812
:10178800BB0000308312031386180130831603133D
:10179800B80038080319D12BD22BDD2B3908031DCB
:1017A800D62BD72BDD2B9C30C0070318C10AFF307E
:1017B800C1073808F0007008B9000030831203131D
:1017C8000619013083160313B60036080319ED2BEA
:1017D800EE2BF92B3708031DF22BF32BF92B0A30CC
:1017E800C0070318C10A0030C1073608F0007008A6
:1017F800B7000800F601F11F022C032C0A2CF0098F
:10180800F109F00A0319F10AF601F60AF31F0D2C83
:101818000E2C172CF209F309F20A0319F30A013006
:10182800F4007408F606F701F8017008710403194A
:101838001E2C1F2C562CF501F50A2D2C01300310F7
:10184800F00DF10DFF3E031D232C0130F400740848
:10185800F507F11F302C312C222C01300310F70D25
:10186800F80DFF3E031D322C71087302031D3E2C38
:1018780070087202031C412C422C492C7008F20299
:101888007108031CF303F302771401300310F10C01
:10189800F00CFF3E031D4A2C0130F502031D552CA8
:1018A800562C312C760803195A2C5B2C602CF7091E
:1018B800F809F70A0319F80A7808F1007708F00020
:1018C8000800031083120313280D290DF900790865
:1018D800AB002B08031D712C722C7B2C0030A90047
:1018E8000030A8000030A7000030A600E02C260831
:1018F800F9002708FA002808FB002908FC001F3017
:101908000310FC0CFB0CFA0CF90CFF3E031D842C95
:101918007908FD007D08AA00A817FF30A605FF304A
:10192800A705FF30A8050030A9059630AB02AB1F0C
:101938009E2C9F2CB92C2B08803A973E0318A52C77
:10194800A62CA72C722C01300310A90CA80CA70CEC
:10195800A60CFF3E031DA82C0130F9007908AB073F
:10196800031DB72CB82CA72CD02C20302B02031C1D
:10197800BE2CBF2CCB2C722C0130F9000310A60D05
:10198800A70DA80DA90DF90BC22C0130AB022B082D
:10199800031DCF2CD02CC02C2A080319D42CD52CED
:1019A800E02CA609A709A809A909A60A0319A70AE4
:1019B8000319A80A0319A90A080083120313A1012D
:1019C800F31FE72CE82CF52CF009F109F209F309CB
:1019D800F00A0319F10A0319F20A0319F30AA1011B
:1019E800A10AF71FF82CF92C082DF409F509F609B6
:1019F800F709F40A0319F50A0319F60A0319F70A8D
:101A08000130F8007808A1060030A5000030A400D5
:101A18000030A3000030A20073087204710470043F
:101A28000319172D182D652DA001A00A282D0130A6
:101A3800F8000310F00DF10DF20DF30DF80B1D2D4C
:101A48000130F8007808A007F31F2B2D2C2D1B2D33
:101A58000130F8000310A20DA30DA40DA50DF80B7D
:101A68002E2D73087702031D432D72087602031D7D
:101A7800432D71087502031D432D70087402031C61
:101A8800462D472D562D7008F4027108031C710F5E
:101A9800F5027208031C720FF6027308031C730F19
:101AA800F702221401300310F30CF20CF10CF00CC5
:101AB800FF3E031D572D0130A002031D642D652D27
:101AC8002C2D21080319692D6A2D752DA209A3094A
:101AD800A409A509A20A0319A30A0319A40A031948
:101AE800A50A2508F3002408F2002308F1002208BB
:101AF800F000080083120313B60036080319852D79
:101B0800862D9A2DB11F892D8A2D9A2D2E09B80060
:101B18002F09B9003009BA003109BB00B80A031906
:101B2800B90A0319BA0A0319BB0AA22D3108BB0066
:101B38003008BA002F08B9002E08B8003108300460
:101B48002F042E04031DA92DAA2DB32D0030B1009A
:101B58000030B0000030AF000030AE00392E9630B3
:101B6800B2003208B700C52D0130B2003208B707FD
:101B780001300310BB0CBA0CB90CB80CFF3E031DA6
:101B8800BD2DFE303B05031DCA2DCB2DB82DE72DED
:101B98000130B2003208B7070130B8070030031827
:101BA8000130B907003003180130BA0700300318B4
:101BB8000130BB0701300310BB0CBA0CB90CB80CD0
:101BC800FF3E031DDF2DFF303B05031DEC2DED2DE2
:101BD800CC2DF92D0130B7020130B2000310B80D39
:101BE800B90DBA0DBB0DB20BF22DBA1BFC2DFD2D94
:101BF800032E023037020318022E032EEE2D37185B
:101C0800062E072E0F2EFF30B805FF30B9057F309E
:101C1800BA05FF30BB050310B70C3708B200B30193
:101C2800B401B50118300310B20DB30DB40DB50DE4
:101C3800FF3E031D172E3208B8043308B9043408D0
:101C4800BA043508BB04360803192B2E2C2E312E66
:101C5800B11F2F2E302E312EBB173B08B1003A088A
:101C6800B0003908AF003808AE0008008316031327
:101C7800220883120313A600831603132308831272
:101C88000313A700A801A9010A128A15B3220A1290
:101C98008A15043083160313210200300319200229
:101CA8000318572E582E012F200883120313AE0055
:101CB80083160313210883120313AF00B001B10187
:101CC80000300A128A157E250A128A158312031318
:101CD8003108C3003008C2002F08C1002E08C00018
:101CE8004430BF007F30BE00C030BD000030BC00B3
:101CF8000A128A119A220A128A15831203133F08BC
:101D0800DD003E08DC003D08DB003C08DA0000305E
:101D1800F7003D30F6000930F5000030F400831676
:101D280003132308A5002208A4000310A40DA50D81
:101D38000310A40DA50D2408F0002508F100F201F8
:101D4800F3010A128A15E1240A128A15730883120C
:101D58000313B1007208B0007108AF007008AE003C
:101D680001300A128A157E250A128A158312031376
:101D78003108D9003008D8002F08D7002E08D6001F
:101D88000A128A1177240A128A1583120313590832
:101D9800A9005808A8005708A7005608A6000A1264
:101DA8008A1565240A128A158312031327088316D5
:101DB8000313A10083120313260883160313A0003C
:101DC800831203139712831603132018EC2EF02E98
:101DD800831203131716F32E831203131712831695
:101DE80003132008A40002300310A40CFF3E031DB7
:101DF800F82E24088312031395000800E830F60033
:101E08000330F700831203132108F9002008F800B3
:101E18000A128A1565230A128A1577088312031392
:101E2800A5007608A4006430F6000030F700210809
:101E3800F3002008F200E830F0000330F1000A1245
:101E48008A15EA220A128A157108F9007008F80042
:101E58000A128A1565230A128A1577088312031352
:101E6800A7007608A6002108F3002008F200E83051
:101E7800F0000330F1000A128A15EA220A128A15C4
:101E8800710883120313AF007008AE000A30F60021
:101E98000030F7002F08F3002E08F2006430F0003D
:101EA8000030F1000A128A15EA220A128A1571080E
:101EB800F9007008F8000A128A1565230A128A15B3
:101EC800770883120313A9007608A8002108F300F5
:101ED8002008F200E830F0000330F1000A128A15F9
:101EE800EA220A128A15710883120313AF007008D8
:101EF800AE002F08F3002E08F2006430F000003026
:101F0800F1000A128A15EA220A128A157108831248
:101F18000313AD007008AC000A30F0000030F10087
:101F28002D08F3002C08F2000A128A15EA220A1278
:101F38008A15710883120313AB007008AA002408DD
:101F4800013E84000A128A1500200A128A158800A8
:101F580086170D3083120313A300FB30A200A20BD7
:101F6800B32FA30BB32F8312031386132608013E46
:101F780084000A128A1500200A128A15880006179A
:101F88000D3083120313A300FB30A200A20BCA2F4B
:101F9800A30BCA2F8312031306132808013E8400DB
:101FA8000A128A1500200A128A15880086160D3032
:101FB80083120313A300FB30A200A20BE12FA30B93
:101FC800E12F8312031386122A08013E84000A12A5
:101FD8008A1500200A128A15880006160D30831209
:101FE8000313A300FB30A200A20BF82FA30BF82FBA
:081FF800831203130612080016
:02400E003A3F37
:00000001FF
