:100000000A128A11C42F5A3400346834103401346F
:10001000003483120313B600360803191028112880
:100020002528B11F1428152825282E09B8002F09C6
:10003000B9003009BA003109BB00B80A0319B90A7E
:100040000319BA0A0319BB0A2D283108BB0030086E
:10005000BA002F08B9002E08B800310830042F0468
:100060002E04031D342835283E280030B10000300E
:10007000B0000030AF000030AE00C4289630B200AF
:100080003208B70050280130B2003208B7070130FB
:100090000310BB0CBA0CB90CB80CFF3E031D48286A
:1000A000FE303B05031D5528562843287228013091
:1000B000B2003208B7070130B8070030031801302A
:1000C000B907003003180130BA07003003180130B7
:1000D000BB0701300310BB0CBA0CB90CB80CFF3EC7
:1000E000031D6A28FF303B05031D77287828572811
:1000F00084280130B7020130B2000310B80DB90DE9
:10010000BA0DBB0DB20B7D28BA1B872888288E2814
:100110000230370203188D288E2879283718912845
:1001200092289A28FF30B805FF30B9057F30BA050C
:10013000FF30BB050310B70C3708B200B301B401A0
:10014000B50118300310B20DB30DB40DB50DFF3E5F
:10015000031DA2283208B8043308B9043408BA04CD
:100160003508BB0436080319B628B728BC28B11FC8
:10017000BA28BB28BC28BB173B08B1003A08B0001E
:100180003908AF003808AE000800FF3083160313AB
:1001900085000F3086008701880189010A168A11BF
:1001A000B7270A128A110A168A11C0270A128A1161
:1001B0000A168A11C9270A128A110A128A1592216F
:1001C0000A128A110A128A1505240A128A110030AD
:1001D0000A128A15B7200A128A117108F6007008EF
:1001E000F5000A30F7000030F8000A128A154020A6
:1001F0000A128A11750883160313D4007608D500F5
:100200000310D50CD40C0310D50CD40C0310D50C52
:10021000D40C54086A3EA40055080318013EFF3E62
:10022000A50001300A128A15B7200A128A11710836
:1002300083160313E1007008E0006508F30064080A
:10024000F2000A30F0000030F1000A128A1516227E
:100250000A128A118316031324087002D400250899
:10026000031C250A7102D500540883120313AE0043
:1002700083160313550883120313AF000030AF1B1E
:10028000FF30B000B10001300A128A1109200A12B1
:100290008A1183120313310883160313D9008312C2
:1002A0000313300883160313D800831203132F0897
:1002B00083160313D700831203132E088316031328
:1002C000D600590883120313D90083160313580864
:1002D00083120313D80083160313570883120313E2
:1002E000D70083160313560883120313D600831610
:1002F0000313620883120313AE008316031363080B
:1003000083120313AF000030AF1BFF30B000B10009
:1003100001300A128A1109200A128A11831203136A
:100320003108DD003008DC002F08DB002E08DA0081
:100330000A128A1163240A128A11831203135908BC
:1003400083160313DF008312031358088316031365
:10035000DE0083120313570883160313DD00831294
:100360000313560883160313DC006108831203137A
:10037000AD0083160313600883120313AC000A1642
:100380008A11E4270A128A11831203132D08831697
:100390000313E100831203132C0883160313E000F8
:1003A000250883120313AD00831603132408831258
:1003B0000313AC000A168A11E4270A128A11831269
:1003C00003132D0883160313A500831203132C08AF
:1003D00083160313A4005F0883120313A900831676
:1003E00003135E0883120313A800831603135D082A
:1003F00083120313A700831603135C0883120313ED
:10040000A6000A128A15EC220A128A11831203131B
:100410002708AD002608AC000A168A11E4270A1244
:100420008A11831203132C08AE002D08AF00003090
:10043000AF1BFF30B000B10001300A128A11092051
:100440000A128A1183120313310883160313DF0083
:1004500083120313300883160313DE008312031381
:100460002F0883160313DD00831203132E0883164F
:100470000313DC005F0883120313A9008316031320
:100480005E0883120313A800831603135D0883120A
:100490000313A700831603135C0883120313A6003B
:1004A0000A128A15EC220A128A11831203132708F2
:1004B00083160313DB00831203132608831603132A
:1004C000DA005B08CF005A08CE00A030D0000F3011
:1004D000D1000A128A15A6240A128A118316031360
:1004E0006108CF006008CE00A030D0000F30D100EE
:1004F0000A128A156E250A128A110A128A157D229D
:100500000A128A11E2280A128A11002883120313A0
:1005100043088039C4004408CD004308C4004407A0
:10052000C5004508D400C21F962A972A982A541459
:10053000540803199C2A9D2AAD2A540A031DA12A96
:10054000A22AAA2A0030C3000030C2000030C10035
:100550000030C000C217C301B52A0030C30000300C
:10056000C2000030C1000030C0003F088039C40024
:100570004408CD063F08C4004407C5004508D5001F
:10058000BE1FC32AC42AC52A551455080319C92AEF
:10059000CA2ADA2A550A031DCE2ACF2AD72A0030C2
:1005A000BF000030BE000030BD000030BC00BE17F0
:1005B000BF01E22A0030BF000030BE000030BD00A5
:1005C0000030BC003F083E043D043C04031DE92A02
:1005D000EA2A032B0030C3000030C2000030C10003
:1005E0000030C0008030C2047F30C3044D08C40016
:1005F0004408C3044308BF004208BE004108BD00D0
:100600004008BC00622C5408031D072B082B112B3B
:100610000030BF000030BE000030BD000030BC0024
:10062000622C5408C400C5014508C700550844029F
:10063000C600031CC70346087F3ECE0047080318C8
:10064000013E003ECF004308CC004208CB004108E9
:10065000CA004008C9000030C3000030C2000030AA
:10066000C1000030C0000030D3000030D2000030A4
:10067000D1000030D000D501872B55080319412B3C
:10068000422B622B0130C4000310C90DCA0DCB0DE3
:10069000CC0DC40B442B0130C4000310C00DC10DA0
:1006A000C20DC30DC40B4D2BD31F572B582B592BE9
:1006B00040140130C4000310D00DD10DD20DD30D64
:1006C000C40B5B2B3F084C02031D702B3E084B02F2
:1006D000031D702B3D084A02031D702B3C08490284
:1006E000031C732B742B832B53173C08C9023D0842
:1006F000031C3D0FCA023E08031C3E0FCB023F08FD
:10070000031C3F0FCC020130C4004408D5071A3047
:100710005502031C8C2B8D2B3D2B4C084B044A049B
:1007200049040319942B952BB42B5014B42B01308E
:10073000C4000310C00DC10DC20DC30DC40B992B15
:10074000D31FA32BA42BA52B40140130C4000310EE
:10075000D00DD10DD20DD30DC40BA72BFF30CE077A
:100760000318CF0AFF30CF07C21FB72BB82B972B28
:10077000D501D31FBC2BBD2BD92BFF305005C40096
:10078000FF305105C500FF305205C6007F305305CC
:10079000C70047084604450444040319D02BD12B55
:1007A000D42BD501D50AD92B401CD72BD82BD92B2C
:1007B000D12B55080319DD2BDE2B0F2C0130C00780
:1007C000003003180130C107003003180130C207A0
:1007D000003003180130C307431CEF2BF02B0F2C04
:1007E0004008C4004108C5004208C6004308C700CD
:1007F0000130C800470DC70CC60CC50CC40CC80B93
:10080000FA2B4708C3004608C2004508C100440847
:10081000C0000130CE070318CF0A0030CF074F08C1
:10082000803AFF0080307F02031D182CFF304E02FB
:10083000031C1B2C1C2C2A2CFF3083120313CE000C
:100840000030CF000030C3000030C2000030C100D3
:100850000030C000831203134F08803AFF0080303D
:100860007F02031D352C01304E020318382C392C21
:10087000462C83120313CE01CF010030C300003099
:10088000C2000030C1000030C000CD01831203134C
:100890004E08C4004408D400541C4F2C502C522C39
:1008A000C217562C7F30C4004408C2055408C40047
:1008B0000310440CC5004508C3004D08C40044089B
:1008C000C304FA2A08008312031359088039DE0092
:1008D0005E08E3005908DE005E07DF005F08E900FC
:1008E000D81F732C742C752C691469080319792C82
:1008F0007A2C892C690A031D7E2C7F2C872C0030D2
:10090000D9000030D8000030D7000030D600D8170A
:10091000912C0030D9000030D8000030D7000030D2
:10092000D6005D088039DE005E08E3065D08DE0063
:100930005E07DF005F08E800DC1F9F2CA02CA12CC5
:10094000681468080319A52CA62CB52C680A031D89
:10095000AA2CAB2CB32C0030DD000030DC000030C2
:10096000DB000030DA00DC17BD2C0030DD00003089
:10097000DC000030DB000030DA0068080319C12C0D
:10098000C22CC72C6908031DC62CC72CD02C0030E4
:10099000D9000030D8000030D7000030D600C32F77
:1009A0005608DE005E08F0005C080A128A15652011
:1009B0000A128A11710883120313EF007008EE0007
:1009C0006E08DE00DF01E001E1016108E700600878
:1009D000E6005F08E5005E08E4006F08DE00DF0166
:1009E000E001E1016108ED006008EC005F08EB0048
:1009F0005E08EA005708DE005E08F0005B080A1295
:100A00008A1565200A128A11710883120313EF00F8
:100A10007008EE006E08DE00DF01E001E1015E0813
:100A2000E4075F0803110318013E0319182DE507B9
:100A3000600803110318013E03191F2DE607610822
:100A400003110318013E0319262DE7076F08DE0086
:100A5000DF01E001E1015E08EA075F080311031806
:100A6000013E0319342DEB07600803110318013E02
:100A700003193B2DEC07610803110318013E03190C
:100A8000422DED075808DE005E08F0005A080A12F1
:100A90008A1565200A128A11710883120313EF0068
:100AA0007008EE006E08DE00DF01E001E1015E0883
:100AB000E4075F0803110318013E0319602DE507E1
:100AC000600803110318013E0319672DE60761084A
:100AD00003110318013E03196E2DE7076F08DE00AE
:100AE000DF01E001E1015E08EA075F080311031876
:100AF000013E03197C2DEB07600803110318013E2A
:100B00000319832DEC07610803110318013E031933
:100B10008A2DED070830DE000310E40DE50DE60D2B
:100B2000E70DDE0B8C2D5708DE005E08F0005A083A
:100B30000A128A1565200A128A117108831203139A
:100B4000EF007008EE006E08DE006F08DF00E001C5
:100B5000E1015E08E4075F0803110318013E031971
:100B6000B22DE507600803110318013E0319B92DE2
:100B7000E607610803110318013E0319C02DE707BA
:100B80005608DE005E08F0005B080A128A15652030
:100B90000A128A11710883120313EF007008EE0025
:100BA0006E08DE006F08DF00E001E1015E08E40787
:100BB0005F0803110318013E0319DF2DE5076008E4
:100BC00003110318013E0319E62DE607610803111E
:100BD0000318013E0319ED2DE7070830DE0003106E
:100BE000E40DE50DE60DE70DDE0BEF2D5608DE00FA
:100BF0005E08F0005A080A128A1565200A128A1146
:100C0000710883120313EF007008EE006E08DE0017
:100C10006F08DF00E001E1015E08E4075F080311EF
:100C20000318013E0319152EE50760080311031888
:100C3000013E03191C2EE607610803110318013E4B
:100C40000319232EE7075708DE005E08F0005C0852
:100C50000A128A1565200A128A1171088312031379
:100C6000EF007008EE006E08DE006F08DF00E001A4
:100C7000E1015E08EA075F0803110318013E03194A
:100C8000422EEB07600803110318013E0319492E99
:100C9000EC07610803110318013E0319502EED07FC
:100CA0005808DE005E08F0005B080A128A1565200D
:100CB0000A128A11710883120313EF007008EE0004
:100CC0006E08DE006F08DF00E001E1015E08EA0760
:100CD0005F0803110318013E03196F2EEB0760082C
:100CE00003110318013E0319762EEC076108031166
:100CF0000318013E03197D2EED075808DE005E083B
:100D0000F0005C080A128A1565200A128A1171081F
:100D100083120313EF007008EE006E08DE006F0808
:100D2000DF00E001E10108300310DE0DDF0DE00D12
:100D3000E10DFF3E031D942E5E08EA075F080311D4
:100D40000318013E0319A52EEB07600803110318D1
:100D5000013E0319AC2EEC07610803110318013E94
:100D60000319B32EED076408DE006508DF0066088E
:100D7000E0006708E10018300310E10CE00CDF0C24
:100D8000DE0CFF3E031DBC2E5E08EA075F08031160
:100D90000318013E0319CD2EEB0760080311031859
:100DA000013E0319D42EEC07610803110318013E1C
:100DB0000319DB2EED070830DE000310E40DE50D0E
:100DC000E60DE70DDE0BDD2E69086807DE00DF01AA
:100DD000DF0D5E08823EEE005F080318013EFF3E15
:100DE000EF000F2F0130DE000310EA0DEB0DEC0DCC
:100DF000ED0DDE0BF42EE71FFE2EFF2E002F6A14E2
:100E00000130DE000310E40DE50DE60DE70DDE0B0D
:100E1000022FFF30EE070318EF0AFF30EF07EC1F39
:100E2000122F132FF22EE801E71F172F182F342F40
:100E3000FF306405DE00FF306505DF00FF3066052A
:100E4000E0007F306705E100610860045F045E0434
:100E500003192B2F2C2F2F2FE801E80A342F6A1C9F
:100E6000322F332F342F2C2F68080319382F392FA6
:100E70006A2F0130EA07003003180130EB07003019
:100E800003180130EC07003003180130ED076D1C2A
:100E90004A2F4B2F6A2F6A08DE006B08DF006C08B0
:100EA000E0006D08E1000130E200610DE10CE00CB2
:100EB000DF0CDE0CE20B552F6108ED006008EC0042
:100EC0005F08EB005E08EA000130EE070318EF0A46
:100ED0000030EF076F08803AFF0080307F02031D6B
:100EE000732FFF306E02031C762F772F822F7F30F7
:100EF00083120313ED008030EC000030EB00003073
:100F0000EA00B72F831203136F08803AFF00803086
:100F10007F02031D8D2F01306E020318902F912F39
:100F20009D2F003083120313ED000030EC000030E1
:100F3000EB000030EA00E301B72F831203136E08C1
:100F4000DE005E08E900FF30EA05FF30EB057F3088
:100F5000EC050030ED05691CAE2FAF2FB02FEC175C
:100F60006908DE0003105E0CDF005F08ED00630817
:100F7000DE005E08ED046D08D9006C08D8006B082F
:100F8000D7006A08D6000800831603130A128A11D4
:100F900003200A128A11E2000A128A1104200A129E
:100FA0008A11E3000A128A1105200A128A11E4004C
:100FB0000A128A1106200A128A11E5000A128A1101
:100FC00007200A128A11E6000A128A1108200A1262
:100FD0008A11E700831790308400B0300A168A1116
:100FE000AF270A128A118313A0308400CE300A166C
:100FF0008A11AF270A128A1183010A128A11C528A1
:10100000FF1B0A2883137F1883170008840A03191B
:10101000FF0A080008308A000408840A82070034A6
:10102000013400340A34003464340034E8340334C6
:1010300010342734203420344B3450343A340034C4
:10104000543445344D3450343A340034203443342D
:0C10500000342534643400342E340034A5
:10106000F10083120313891471080A168A11A92743
:101070000A128A15831203130914891089140800AF
:10108000F901FA01751C452846284C287708F9070C
:101090000318FA0A7808FA0701300310F70DF80D63
:1010A000FF3E031D4D2801300310F60CF50CFF3EEA
:1010B000031D542875087604031D5F286028422804
:1010C0007A08F6007908F5000800F800F401F50147
:1010D0007008F200F3017208F6007308F700781C3C
:1010E0007228732879287608F4070318F50A770818
:1010F000F50701300310F60DF70DFF3E031D7A28AA
:101100000310F80C7808031D862887286F287508B7
:10111000F1007408F0000800F501A32875087207B3
:10112000840073080318730AFF000A128A1500204E
:101130000A128A150A128A1530200A128A150130FD
:10114000F4007408F5077508720784007308031823
:10115000730A83120313FF000A128A1500200A1271
:101160008A15003A031DB528B6288E280800F40019
:1011700008307402031CBD28BE28C128F001F1010B
:10118000EA28C530F2007208831203139F05740821
:10119000F20002300310F20DFF3E031DCA280310B7
:1011A000720DF30073089F040330F3009730F200D0
:1011B000F20BD828F30BD828DD28831203131F1550
:1011C0001F19E328E428E0281E08F1008316031302
:1011D0001E08F000080083120313891009108914F7
:1011E00038300A168A11D4270A128A1538300A169E
:1011F0008A11D4270A128A1538300A168A11D42780
:101200000A128A1508300A168A11D4270A128A157A
:101210000F300A168A11D4270A128A1501300A16CD
:101220008A11D4270A128A1538300A168A11D4274F
:101230000A128A1580300A168A11D4270A128A15D2
:101240000800831203132608F9002708FA0028086B
:10125000FB002908FC0002300310F90DFA0DFB0D0C
:10126000FC0DFF3E031D2C2902300310F90DFA0D71
:10127000FB0DFC0DFF3E031D35297C08F3007B08A8
:10128000F2007A08F1007908F0000030F7003D30F4
:10129000F6000930F5000030F4000A128A156823C0
:1012A0000A128A157008FF3E831603139200080085
:1012B0007008710403195D295E298D29F501F50A6D
:1012C0006C2901300310F00DF10DFF3E031D622962
:1012D0000130F4007408F507F11F6F2970296129A6
:1012E00071087302031D762970087202031C7929A4
:1012F0007A2980297008F2027108031CF303F302B3
:1013000001300310F10CF00CFF3E031D8129013068
:10131000F502031D8C298D2970297308F1007208CC
:10132000F00008000A128A15EB200A128A15803094
:101330000A168A11D4270A128A151130F200803059
:10134000F3000A128A158C200A128A15C0300A1678
:101350008A11D4270A128A150B30F2008030F3006C
:101360000A128A158C200A128A1585300A168A11EB
:10137000D4270A128A150A128A157D220A128A15A2
:10138000023083160313E6000030E7000A128A15C4
:101390007D220A128A15013083160313E6000030FD
:1013A000E7000800FB01FC01760877040319D9293E
:1013B000DA29112AFD01FD0AE82901300310F60D92
:1013C000F70DFF3E031DDE290130FA007A08FD0704
:1013D000F71FEB29EC29DD2901300310FB0DFC0D73
:1013E000FF3E031DED2977087902031DF9297608D0
:1013F0007802031CFC29FD29042A7608F8027708E4
:10140000031CF903F9027B1401300310F70CF60CEE
:10141000FF3E031D052A0130FD02031D102A112A7B
:10142000EC297C08F7007B08F6000800F601F11FA4
:101430001A2A1B2A222AF009F109F00A0319F10AD3
:10144000F601F60AF31F252A262A2F2AF209F309A4
:10145000F20A0319F30A0130F4007408F606F701E2
:10146000F801700871040319362A372A6E2AF5012B
:10147000F50A452A01300310F00DF10DFF3E031D62
:101480003B2A0130F4007408F507F11F482A492A65
:101490003A2A01300310F70DF80DFF3E031D4A2ACA
:1014A00071087302031D562A70087202031C592A20
:1014B0005A2A612A7008F2027108031CF303F3022E
:1014C000771401300310F10CF00CFF3E031D622A6B
:1014D0000130F502031D6D2A6E2A492A7608031988
:1014E000722A732A782AF709F809F70A0319F80A01
:1014F0007808F1007708F0000800831603136603EC
:1015000067040319842A852AAB2A23086506031D6C
:101510008B2A2208640603198E2A8F2AA42A6508BA
:1015200083120313AF00831603136408831203139B
:10153000AE000A128A1536260A128A15831603137C
:101540006508A3006408A2008F300A168A11D42708
:101550000A128A15EB2A21086306031DB12A200806
:1015600062060319B42AB52AE52AC5300A168A117B
:10157000D4270A128A15903083120313A000013079
:10158000A1001A30B9003908A200831603136308BA
:1015900083120313A4008316031362088312031338
:1015A000A3000A128A150B270A128A159030F2003E
:1015B0000130F3000A128A158C200A128A1583164C
:1015C00003136308A1006208A000CF300A168A1135
:1015D000D4270A128A150800031083120313280D5A
:1015E000290DF9007908AB002B08031DF82AF92A08
:1015F000022B0030A9000030A8000030A700003006
:10160000A600672B2608F9002708FA002808FB0027
:101610002908FC001F300310FC0CFB0CFA0CF90C21
:10162000FF3E031D0B2B7908FD007D08AA00A817BB
:10163000FF30A605FF30A705FF30A8050030A9053B
:101640009630AB02AB1F252B262B402B2B08803A64
:10165000973E03182C2B2D2B2E2BF92A013003102B
:10166000A90CA80CA70CA60CFF3E031D2F2B0130C4
:10167000F9007908AB07031D3E2B3F2B2E2B572B70
:1016800020302B02031C452B462B522BF92A01300C
:10169000F9000310A60DA70DA80DA90DF90B492BF4
:1016A0000130AB022B08031D562B572B472B2A0862
:1016B00003195B2B5C2B672BA609A709A809A909AD
:1016C000A60A0319A70A0319A80A0319A90A0800F8
:1016D00083120313A101F31F6E2B6F2B7C2BF009D8
:1016E000F109F209F309F00A0319F10A0319F20AE0
:1016F0000319F30AA101A10AF71F7F2B802B8F2B5F
:10170000F409F509F609F709F40A0319F50A0319AA
:10171000F60A0319F70A0130F8007808A10600302C
:10172000A5000030A4000030A3000030A200730820
:1017300072047104700403199E2B9F2BEC2BA001E3
:10174000A00AAF2B0130F8000310F00DF10DF20DDF
:10175000F30DF80BA42B0130F8007808A007F31F55
:10176000B22BB32BA22B0130F8000310A20DA30D56
:10177000A40DA50DF80BB52B73087702031DCA2B1A
:1017800072087602031DCA2B71087502031DCA2B4D
:1017900070087402031CCD2BCE2BDD2B7008F402D5
:1017A0007108031C710FF5027208031C720FF60218
:1017B0007308031C730FF702221401300310F30C9B
:1017C000F20CF10CF00CFF3E031DDE2B0130A002E9
:1017D000031DEB2BEC2BB32B21080319F02BF12B62
:1017E000FC2BA209A309A409A509A20A0319A30AAB
:1017F0000319A40A0319A50A2508F3002408F20016
:101800002308F1002208F0000800003083120313BF
:101810000618013083160313AC002C080319112C91
:10182000122C2A2C2D08031D162C172C2A2C66038B
:10183000670403191C2C1D2C242C6430E4070318A6
:10184000E50A0030E5072A2C6430E2070318E30AB2
:101850000030E3072C08F0007008AD000030831260
:1018600003138618013083160313AA002A080319EC
:101870003A2C3B2C532C2B08031D3F2C402C532C73
:10188000660367040319452C462C4D2C9C30E40755
:101890000318E50AFF30E507532C9C30E2070318D4
:1018A000E30AFF30E3072A08F0007008AB000030BD
:1018B000831203130619013083160313A8002808A6
:1018C0000319632C642C7C2C2908031D682C692CBB
:1018D0007C2C6603670403196E2C6F2C762C0A305F
:1018E000E4070318E50A0030E5077C2C0A30E2071C
:1018F0000318E30A0030E3072808F0007008A90085
:101900000030831203138619013083160313A600D7
:10191000260803198C2C8D2CA12C2708031D912C33
:10192000922CA12C66036704031D972C982C9D2CE8
:101930000230E6000030E700A12C0130E600003064
:10194000E7002608F0007008A700080083160313BC
:10195000500883120313A600831603135108831241
:101960000313A700A801A9010A128A1521210A124E
:101970008A150430831603134F02003003194E02F8
:101980000318C32CC42C6D2D4E0883120313AE0014
:10199000831603134F0883120313AF00B001B10184
:1019A00000300A128A1109200A128A1583120313C1
:1019B0003108C3003008C2002F08C1002E08C00043
:1019C0004430BF007F30BE00C030BD000030BC00DE
:1019D0000A128A1186220A128A15831203133F08FB
:1019E000DD003E08DC003D08DB003C08DA0000308A
:1019F000F7003D30F6000930F5000030F4008316A2
:101A000003135108D3005008D2000310D20DD30D98
:101A10000310D20DD30D5208F0005308F100F2016B
:101A2000F3010A128A1568230A128A1573088312B1
:101A30000313B1007208B0007108AF007008AE0067
:101A400001300A128A1109200A128A15831203131F
:101A50003108D9003008D8002F08D7002E08D6004A
:101A60000A128A1163240A128A1583120313590871
:101A7000A9005808A8005708A7005608A6000A128F
:101A80008A15EC220A128A1583120313270883167B
:101A90000313CF0083120313260883160313CE000B
:101AA000831203139712831603134E18582D5C2DBF
:101AB0008312031317165F2D831203131712831655
:101AC00003134E08D20002300310D20CFF3E031D58
:101AD000642D520883120313950008008316031324
:101AE000500883120313A6008316031351088312B0
:101AF0000313A700A801A9010A128A1521210A12BD
:101B00008A150430831603134F02003003194E0266
:101B100003188B2D8C2D352E4E0883120313AE0027
:101B2000831603134F0883120313AF00B001B101F2
:101B300000300A128A1109200A128A15831203132F
:101B40003108C3003008C2002F08C1002E08C000B1
:101B50004430BF007F30BE00C030BD000030BC004C
:101B60000A128A1186220A128A15831203133F0869
:101B7000DD003E08DC003D08DB003C08DA000030F8
:101B8000F7003D30F6000930F5000030F400831610
:101B900003135108D3005008D2000310D20DD30D07
:101BA0000310D20DD30D5208F0005308F100F201DA
:101BB000F3010A128A1568230A128A157308831220
:101BC0000313B1007208B0007108AF007008AE00D6
:101BD00001300A128A1109200A128A15831203138E
:101BE0003108D9003008D8002F08D7002E08D600B9
:101BF0000A128A1163240A128A15831203135908E0
:101C0000A9005808A8005708A7005608A6000A12FD
:101C10008A15EC220A128A158312031327088316E9
:101C20000313CF0083120313260883160313CE0079
:101C3000831203139D12831603134E18202E242E95
:101C4000831203131D16272E831203131D128316EE
:101C500003134E08D20002300310D20CFF3E031DC6
:101C60002C2E5208831203139B000800E830F60064
:101C70000330F700831203132F08F9002E08F80031
:101C80000A128A15D2210A128A15770883120313C1
:101C9000B2007608B1006430F6000030F7002F087B
:101CA000F3002E08F200E830F0000330F1000A12D1
:101CB0008A1558210A128A157108F9007008F8006F
:101CC0000A128A15D2210A128A1577088312031381
:101CD000B4007608B3002F08F3002E08F200E830B5
:101CE000F0000330F1000A128A1558210A128A15F1
:101CF000710883120313B8007008B7000A30F600A9
:101D00000030F7003808F3003708F2006430F000C4
:101D10000030F1000A128A1558210A128A1571083A
:101D2000F9007008F8000A128A15D2210A128A15E1
:101D3000770883120313B6007608B50085300A16BB
:101D40008A11D4270A128A15AE3083120313A00019
:101D50000030A1001A30B0003008A2003208A40000
:101D60003108A3000A128A150B270A128A15AE3011
:101D7000F2000030F3000A128A158C200A128A152C
:101D8000AE3083120313A0000030A1001A30B0005F
:101D90003008A2003408A4003308A3000A128A15F0
:101DA0000B270A128A15AE30F2000030F3000A1237
:101DB0008A158C200A128A151D30F2008030F3003B
:101DC0000A128A158C200A128A15AE308312031368
:101DD000A0000030A1001A30B0003008A200360880
:101DE000A4003508A3000A128A150B270A128A15C7
:101DF000AE30F2000030F3000A128A158C200A126D
:101E00008A151730F2008030F3000A128A158C20F0
:101E10000A128A150800233083120313A50025082F
:101E2000A800E72F25302D060319172F182F282F6C
:101E30002D08A500200884008317211C8313250882
:101E400080000130A0070318A10A0030A107E72F86
:101E5000A9010130A207FF30220784000A128A1567
:101E60000A200A128A15AD00A500A6012608003A2C
:101E700003193B2FE72F2508003A0319F92F643A7D
:101E80000319462F0D3A0319462FE72F280884001F
:101E900083130008AB00840A0008AC000230A500E0
:101EA0002508A807AC1F552F562F5F2F0330A5001C
:101EB0002508A904AB09AC09AB0A0319AC0AAD01AA
:101EC000AD0A2D08A5002507013E84000A128A15D7
:101ED0000A200A128A15A6000A128A150A200A1276
:101EE0008A15A70027082C02031D782F26082B022D
:101EF00003187B2F7C2F7D2F872F0130A50025080D
:101F0000AD0705302D06031D862F872F612F290869
:101F1000033903198C2F8D2F9C2F2D30A5002008FD
:101F200084008317211C8313250880000130A0073B
:101F30000318A10A0030A1072D08A5002508AA0052
:101F4000DE2F0A30F0000030F1002A08A500250736
:101F5000013E84000A128A150A200A128A15F60028
:101F60000A128A150A200A128A15F7002C08F900AD
:101F70002B08F8000A128A15D2210A128A1577084E
:101F8000F3007608F2000A128A1558210A128A15FF
:101F90007008303E83120313A6002608AD002D08FA
:101FA000A500200884008317211C831325088000C6
:101FB0000130A0070318A10A0030A107FF30A500D7
:101FC0002508AA072A0A031DE62FE72FA12F0130B3
:101FD000A207FF30220784000A128A150A200A127B
:101FE0008A15A5002508AD002D08031DF82FF92F2F
:101FF000122F200884008317211C831380010800FE
:102F5200F0007008831203138800080064008001E7
:102F6200840A0406031900340406B02F8030831645
:102F720003139F00C130831203139F0008008312C2
:102F8200031397151715121583160313071108005B
:102F9200831203139D151D15121492101215831618
:102FA200031387100800F1008312031389147108B8
:102FB2000A168A11A9270A168A1183120313091005
:102FC20089108914080083120313AD1FE92FEA2F19
:102FD200EC2FAC01AD012D08803AFF0084307F0256
:102FE200031DF52F00302C02031CF82FF92FFF2FA1
:0E2FF200FF3083120313AC000330AD00080063
:02400E003A3F37
:00000001FF
