:060000000A128A11F02F24
:100008008312031397151715121583160313071177
:10001800080083120313AA002A08031914281528B4
:100028002928A91F1828192829282609AC002709D2
:10003800AD002809AE002909AF00AC0A0319AD0AC2
:100048000319AE0A0319AF0A31282908AF00280896
:10005800AE002708AD002608AC00290828042704AC
:100068002604031D3828392842280030A90000300A
:10007800A8000030A7000030A600C8289630F90074
:100088007908AB0054280130F9007908AB07013032
:100098000310AF0CAE0CAD0CAC0CFF3E031D4C288E
:1000A800FE302F05031D59285A2847287628013085
:1000B800F9007908AB070130AC07003003180130AC
:1000C800AD07003003180130AE07003003180130C7
:1000D800AF0701300310AF0CAE0CAD0CAC0CFF3EFB
:1000E800031D6E28FF302F05031D7B287C285B2805
:1000F80088280130AB020130F9000310AC0DAD0DBA
:10010800AE0DAF0DF90B8128AE1B8B288C289228D9
:1001180002302B020318912892287D282B18952845
:1001280096289E28FF30AC05FF30AD057F30AE0520
:10013800FF30AF050310AB0C2B08F900FA01FB01E7
:10014800FC0118300310F90DFA0DFB0DFC0DFF3EF4
:10015800031DA6287908AC047A08AD047B08AE0410
:100168007C08AF042A080319BA28BB28C028A91F8D
:10017800BE28BF28C028AF172F08A9002E08A8003E
:100188002D08A7002C08A6000800FF3083160313CB
:1001980085000F3086008701880189016830B0002A
:1001A8001030B1000A128A151B230A128A110A128A
:1001B8008A1104200A128A110A128A1524230A12A3
:1001C8008A11831603133108F1003008F0000A126F
:1001D8008A15E3240A128A11710883160313B100E1
:1001E8007008B00000300A128A1593230A128A1187
:1001F8007108F6007008F5000A30F7000030F800C2
:100208000A128A1547230A128A11750883160313DE
:10021800A6007608A7000310A70CA60C0310A70CCD
:10022800A60C0310A70CA60C26086A3EAA002708ED
:100238000318013EFF3EAB0001300A128A159323D2
:100248000A128A11710883160313AD007008AC00F6
:100258000A30F0000030F1003108F3003008F200F5
:100268000A128A157C240A128A11831603132A0893
:100278007002A8002B08031C2B0A7102A900643025
:10028800F5000030F6002908F8002808F7000A12DF
:100298008A1547230A128A11760883160313AF00BA
:1002A8007508AE002D08F1002C08F0000A128A1516
:1002B8002F230A128A11710883160313AD007008E0
:1002C800AC002B08F1002A08F0000A128A152F2327
:1002D8000A128A11710883160313AB007008AA006A
:1002E8002F08F1002E08F0000A128A152F230A128F
:1002F8008A11710883160313AF007008AE002F0827
:10030800A1002E08A000A030A2000F30A3000A12FE
:100318008A1570260A128A11831603132D08A10064
:100328002C08A000A030A2000F30A3000A128A15E2
:1003380038270A128A11831603133108831203130C
:10034800A10083160313300883120313A0000A12B6
:100358008A11B4210A128A11E5280A128A11002882
:10036800E830F6000330F700831203132108F90080
:100378002008F8000A128A1538240A128A11770808
:1003880083120313A5007608A4006430F600003039
:10039800F7002108F3002008F200E830F0000330ED
:1003A800F1000A128A15FE230A128A117108F9004F
:1003B8007008F8000A128A1538240A128A11770878
:1003C80083120313A7007608A6002108F30020086B
:1003D800F200E830F0000330F1000A128A15FE231B
:1003E8000A128A11710883120313AF007008AE0055
:1003F8000A30F6000030F7002F08F3002E08F2004C
:100408006430F0000030F1000A128A15FE230A1247
:100418008A117108F9007008F8000A128A15382440
:100428000A128A11770883120313A9007608A80014
:100438002108F3002008F200E830F0000330F10052
:100448000A128A15FE230A128A11710883120313ED
:10045800AF007008AE002F08F3002E08F2006430D9
:10046800F0000030F1000A128A15FE230A128A11E0
:10047800710883120313AD007008AC000A30F00055
:100488000030F1002D08F3002C08F2000A128A153A
:10049800FE230A128A11710883120313AB00700835
:1004A800AA002408013E84000A128A1500200A12B4
:1004B8008A11880086170D3083120313A300FB30BE
:1004C800A200A20B652AA30B652A831203138613C5
:1004D8002608013E84000A128A1500200A128A1191
:1004E800880006170D3083120313A300FB30A20007
:1004F800A20B7C2AA30B7C2A831203130613280859
:10050800013E84000A128A1500200A128A11880006
:1005180086160D3083120313A300FB30A200A20B32
:10052800932AA30B932A8312031386122A08013EE7
:1005380084000A128A1500200A128A1188000616F9
:100548000D3083120313A300FB30A200A20BAA2ACA
:10055800A30BAA2A8312031306120800831203139B
:1005680037088039B8003808C1003708B80038079C
:10057800B9003908C800B61FC22AC32AC42A4814B9
:1005880048080319C82AC92AD92A480A031DCD2AA6
:10059800CE2AD62A0030B7000030B6000030B500A9
:1005A8000030B400B617B701E12A0030B7000030B8
:1005B800B6000030B5000030B40033088039B80008
:1005C8003808C1063308B8003807B9003908C90027
:1005D800B21FEF2AF02AF12A491449080319F52A0B
:1005E800F62A062B490A031DFA2AFB2A032B003098
:1005F800B3000030B2000030B1000030B000B217D4
:10060800B3010E2B0030B3000030B2000030B1004F
:100618000030B0003308320431043004031D152BB8
:10062800162B2F2B0030B7000030B6000030B50075
:100638000030B4008030B6047F30B7044108B800F9
:100648003808B7043708B3003608B2003508B100D7
:100658003408B0008E2C4808031D332B342B3D2B57
:100668000030B3000030B2000030B1000030B000FC
:100678008E2C4808B800B9013908BB00490838026F
:10068800BA00031CBB033A087F3EC2003B080318AC
:10069800013E003EC3003708C0003608BF003508D9
:1006A800BE003408BD000030B7000030B60000308E
:1006B800B5000030B4000030C7000030C60000307C
:1006C800C5000030C400C901B32B490803196D2BBC
:1006D8006E2B8E2B0130B8000310BD0DBE0DBF0D63
:1006E800C00DB80B702B0130B8000310B40DB50D58
:1006F800B60DB70DB80B792BC71F832B842B852B11
:1007080034140130B8000310C40DC50DC60DC70D53
:10071800B80B872B33084002031D9C2B32083F027D
:10072800031D9C2B31083E02031D9C2B30083D0203
:10073800031C9F2BA02BAF2B47173008BD02310895
:10074800031C310FBE023208031C320FBF023308EC
:10075800031C330FC0020130B8003808C9071A302B
:100768004902031CB82BB92B692B40083F043E04EF
:100778003D040319C02BC12BE02B4414E02B01309E
:10078800B8000310B40DB50DB60DB70DB80BC52BD9
:10079800C71FCF2BD02BD12B34140130B800031036
:1007A800C40DC50DC60DC70DB80BD32BFF30C2073E
:1007B8000318C30AFF30C307B61FE32BE42BC32B70
:1007C800C901C71FE82BE92B052CFF304405B800E9
:1007D800FF304505B900FF304605BA007F304705B0
:1007E800BB003B083A04390438040319FC2BFD2BE1
:1007F800002CC901C90A052C341C032C042C052C17
:10080800FD2B49080319092C0A2C3B2C0130B4078D
:10081800003003180130B507003003180130B6075F
:10082800003003180130B707371C1B2C1C2C3B2C3D
:100838003408B8003508B9003608BA003708BB00D4
:100848000130BC003B0DBB0CBA0CB90CB80CBC0B8E
:10085800262C3B08B7003A08B6003908B500380816
:10086800B4000130C2070318C30A0030C3074308A5
:10087800803AFF0080307F02031D442CFF30420283
:10088800031C472C482C562CFF3083120313C2003C
:100898000030C3000030B7000030B6000030B500AB
:1008A8000030B400831203134308803AFF008030FD
:1008B8007F02031D612C013042020318642C652C51
:1008C800722C83120313C201C3010030B700003039
:1008D800B6000030B5000030B400C1018312031324
:1008E8004208B8003808C800481C7B2C7C2C7E2C99
:1008F800B617822C7F30B8003808B6054808B8000B
:100908000310380CB9003908B7004108B800380896
:10091800B704262B0800831203134D088039D20030
:100928005208D7004D08D2005207D3005308DD0003
:10093800CC1F9F2CA02CA12C5D145D080319A52C9D
:10094800A62CB52C5D0A031DAA2CAB2CB32C0030A9
:10095800CD000030CC000030CB000030CA00CC17EE
:10096800BD2C0030CD000030CC000030CB00003072
:10097800CA0051088039D2005208D7065108D2005F
:100988005207D3005308DC00D01FCB2CCC2CCD2C25
:100998005C145C080319D12CD22CE12C5C0A031DD1
:1009A800D62CD72CDF2C0030D1000030D0000030FE
:1009B800CF000030CE00D017E92C0030D100003035
:1009C800D0000030CF000030CE005C080319ED2CB9
:1009D800EE2CF32C5D08031DF22CF32CFC2C0030BC
:1009E800CD000030CC000030CB000030CA00EF2F23
:1009F8004A08D2005208F00050080A128A156C23DF
:100A08000A128A11710883120313E3007008E200C6
:100A18006208D200D301D401D5015508DB0054087F
:100A2800DA005308D9005208D8006308D200D3016D
:100A3800D401D5015508E1005408E0005308DF004F
:100A48005208DE004B08D2005208F0004F080A1284
:100A58008A156C230A128A11710883120313E300A2
:100A68007008E2006208D200D301D401D50152080F
:100A7800D807530803110318013E0319442DD90759
:100A8800540803110318013E03194B2DDA075508C2
:100A980003110318013E0319522DDB076308D20026
:100AA800D301D401D5015208DE07530803110318F6
:100AB800013E0319602DDF07540803110318013E96
:100AC8000319672DE007550803110318013E0319A0
:100AD8006E2DE1074C08D2005208F0004E080A12A9
:100AE8008A156C230A128A11710883120313E30012
:100AF8007008E2006208D200D301D401D50152087F
:100B0800D807530803110318013E03198C2DD90780
:100B1800540803110318013E0319932DDA075508E9
:100B280003110318013E03199A2DDB076308D2004D
:100B3800D301D401D5015208DE0753080311031865
:100B4800013E0319A82DDF07540803110318013EBD
:100B58000319AF2DE007550803110318013E0319C7
:100B6800B62DE1070830D2000310D80DD90DDA0DE3
:100B7800DB0DD20BB82D4B08D2005208F0004E08FE
:100B88000A128A156C230A128A1171088312031338
:100B9800E3007008E2006208D2006308D300D401C1
:100BA800D5015208D807530803110318013E031949
:100BB800DE2DD907540803110318013E0319E52D4A
:100BC800DA07550803110318013E0319EC2DDB075A
:100BD8004A08D2005208F0004F080A128A156C23FE
:100BE8000A128A11710883120313E3007008E200E5
:100BF8006208D2006308D300D401D5015208D8078F
:100C0800530803110318013E03190B2ED907540882
:100C180003110318013E0319122EDA0755080311B0
:100C28000318013E0319192EDB070830D200031000
:100C3800D80DD90DDA0DDB0DD20B1B2E4A08D200C8
:100C48005208F0004E080A128A156C230A128A11FB
:100C5800710883120313E3007008E2006208D200EF
:100C68006308D300D401D5015208D80753080311EB
:100C78000318013E0319412ED9075408031103181C
:100C8800013E0319482EDA07550803110318013EDF
:100C980003194F2EDB074B08D2005208F00050080A
:100CA8000A128A156C230A128A1171088312031317
:100CB800E3007008E2006208D2006308D300D401A0
:100CC800D5015208DE07530803110318013E031922
:100CD8006E2EDF07540803110318013E0319752E01
:100CE800E007550803110318013E03197C2EE1079C
:100CF8004C08D2005208F0004F080A128A156C23DB
:100D08000A128A11710883120313E3007008E200C3
:100D18006208D2006308D300D401D5015208DE0767
:100D2800530803110318013E03199B2EDF075408CB
:100D380003110318013E0319A22EE00755080311F9
:100D48000318013E0319A92EE1074C08D2005208E6
:100D5800F00050080A128A156C230A128A117108C9
:100D680083120313E3007008E2006208D2006308EC
:100D7800D300D401D50108300310D20DD30DD40D02
:100D8800D50DFF3E031DC02E5208DE075308031180
:100D98000318013E0319D12EDF0754080311031865
:100DA800013E0319D82EE007550803110318013E28
:100DB8000319DF2EE1075808D2005908D3005A0852
:100DC800D4005B08D50018300310D50CD40CD30C14
:100DD800D20CFF3E031DE82E5208DE07530803110C
:100DE8000318013E0319F92EDF07540803110318ED
:100DF800013E0319002FE007550803110318013EAF
:100E08000319072FE1070830D2000310D80DD90DB8
:100E1800DA0DDB0DD20B092F5D085C07D200D30178
:100E2800D30D5208823EE20053080318013EFF3EEC
:100E3800E3003B2F0130D2000310DE0DDF0DE00D83
:100E4800E10DD20B202FDB1F2A2F2B2F2C2F5E1406
:100E58000130D2000310D80DD90DDA0DDB0DD20BFD
:100E68002E2FFF30E2070318E30AFF30E307E01FE5
:100E78003E2F3F2F1E2FDC01DB1F432F442F602FF7
:100E8800FF305805D200FF305905D300FF305A050E
:100E9800D4007F305B05D500550854045304520430
:100EA8000319572F582F5B2FDC01DC0A602F5E1CBB
:100EB8005E2F5F2F602F582F5C080319642F652F52
:100EC800962F0130DE07003003180130DF070030AD
:100ED80003180130E007003003180130E107611CF6
:100EE800762F772F962F5E08D2005F08D300600810
:100EF800D4006108D5000130D600550DD50CD40CAE
:100F0800D30CD20CD60B812F5508E1005408E00011
:100F18005308DF005208DE000130E2070318E30A35
:100F28000030E3076308803AFF0080307F02031D2A
:100F38009F2FFF306202031CA22FA32FAE2F7F30FA
:100F480083120313E1008030E0000030DF0000303E
:100F5800DE00E32F831203136308803AFF0080301A
:100F68007F02031DB92F013062020318BC2FBD2F69
:100F7800C92F003083120313E1000030E000003075
:100F8800DF000030DE00D701E32F8312031362086D
:100F9800D2005208DD00FF30DE05FF30DF057F306C
:100FA800E0050030E1055D1CDA2FDB2FDC2FE017B0
:100FB8005D08D2000310520CD3005308E100570813
:100FC800D2005208E1046108CD006008CC005F0837
:100FD800CB005E08CA00080083120313EF018316D2
:100FE8000313B201B301B401B501B601B701B801E9
:100FF80083010A128A11C92808308A000408840A61
:10100800820700343F3406345B344F3466346D3421
:081018007D3407347F346F348E
:101636008030831603139F00C130831203139F006B
:101646000800831203139D151D151214921012150E
:101656008316031387100800F11F322B332B352B0B
:10166600F001F1017108803AFF0084307F02031D0A
:101676003E2B00307002031C412B422B462BFF30C1
:10168600F0000330F1000800F901FA01751C4C2B3B
:101696004D2B532B7708F9070318FA0A7808FA072F
:1016A60001300310F70DF80DFF3E031D542B0130DA
:1016B6000310F60CF50CFF3E031D5B2B7508760434
:1016C600031D662B672B492B7A08F6007908F5006F
:1016D6000800F800F401F5017008F200F301720841
:1016E600F6007308F700781C792B7A2B802B760886
:1016F600F4070318F50A7708F50701300310F60D0D
:10170600F70DFF3E031D812B0310F80C7808031D0F
:101716008D2B8E2B762B7508F1007408F0000800CF
:10172600F40008307402031C992B9A2B9D2BF001B0
:10173600F101C62BC530F2007208831203139F0510
:101746007408F20002300310F20DFF3E031DA62BB3
:101756000310720DF30073089F040330F3009730F3
:10176600F200F20BB42BF30BB42BB92B8312031339
:101776001F151F19BF2BC02BBC2B1E08F10083168B
:1017860003131E08F0000800831203132608F9004D
:101796002708FA002808FB002908FC00023003107D
:1017A600F90DFA0DFB0DFC0DFF3E031DD22B023089
:1017B6000310F90DFA0DFB0DFC0DFF3E031DDB2B8F
:1017C6007C08F3007B08F2007A08F1007908F00043
:1017D6000030F7003D30F6000930F5000030F40027
:1017E6000A128A15D3250A128A157008FF3E831637
:1017F600031392000800700871040319032C042CCB
:10180600332CF501F50A122C01300310F00DF10D01
:10181600FF3E031D082C0130F4007408F507F11F84
:10182600152C162C072C71087302031D1C2C70082E
:101836007202031C1F2C202C262C7008F202710841
:10184600031CF303F30201300310F10CF00CFF3E0E
:10185600031D272C0130F502031D322C332C162CC8
:101866007308F1007208F0000800FB01FC0176081D
:10187600770403193F2C402C772CFD01FD0A4E2CD2
:1018860001300310F60DF70DFF3E031D442C013009
:10189600FA007A08FD07F71F512C522C432C013011
:1018A6000310FB0DFC0DFF3E031D532C7708790238
:1018B600031D5F2C76087802031C622C632C6A2CAD
:1018C6007608F8027708031CF903F9027B14013045
:1018D6000310F70CF60CFF3E031D6B2C0130FD02C6
:1018E600031D762C772C522C7C08F7007B08F6001B
:1018F6000800F601F11F802C812C882CF009F109D3
:10190600F00A0319F10AF601F60AF31F8B2C8C2C48
:10191600952CF209F309F20A0319F30A0130F400CF
:101926007408F606F701F8017008710403199C2C77
:101936009D2CD42CF501F50AAB2C01300310F00DCB
:10194600F10DFF3E031DA12C0130F4007408F507CC
:10195600F11FAE2CAF2CA02C01300310F70DF80DA3
:10196600FF3E031DB02C71087302031DBC2C7008CA
:101976007202031CBF2CC02CC72C7008F20271081F
:10198600031CF303F302771401300310F10CF00C7F
:10199600FF3E031DC82C0130F502031DD32CD42CA9
:1019A600AF2C76080319D82CD92CDE2CF709F809A8
:1019B600F70A0319F80A7808F1007708F00008001A
:1019C60000308312031306180130EF006F08031965
:1019D600ED2CEE2CFB2C831603133808031DF42C78
:1019E600F52CFB2C6430F0070318F10A0030F107E0
:1019F60083126F08F200720883160313B8000030D2
:101A0600831203138618013083160313B6003608B3
:101A160003190E2D0F2D1A2D3708031D132D142D06
:101A26001A2D9C30F0070318F10AFF30F10736082B
:101A3600F2007208B7000030831203130619013052
:101A460083160313B400340803192A2D2B2D362DC3
:101A56003508031D2F2D302D362D0A30F0070318BB
:101A6600F10A0030F1073408F2007208B5000030C0
:101A7600831203138619013083160313B20032084A
:101A86000319462D472D522D3308031D4B2D4C2D82
:101A9600522DF630F0070318F10AFF30F10732082D
:101AA600F2007208B3000800031083120313660DD8
:101AB600670DE8006808EE006E08031D632D642DAF
:101AC6006D2D0030E7000030E6000030E500003004
:101AD600E400D22D6408E8006508E9006608EA001B
:101AE6006708EB001F300310EB0CEA0CE90CE80C5E
:101AF600FF3E031D762D6808EC006C08ED00E61726
:101B0600FF30E405FF30E505FF30E6050030E70568
:101B16009630EE02EE1F902D912DAB2D6E08803A79
:101B2600973E0318972D982D992D642D013003109B
:101B3600E70CE60CE50CE40CFF3E031D9A2D013084
:101B4600E8006808EE07031DA92DAA2D992DC22DC0
:101B560020306E02031CB02DB12DBD2D642D013039
:101B6600E8000310E40DE50DE60DE70DE80BB42DD6
:101B76000130EE026E08031DC12DC22DB22D6D0877
:101B86000319C62DC72DD22DE409E509E609E70993
:101B9600E40A0319E50A0319E60A0319E70A080025
:101BA60083120313A101F31FD92DDA2DE72DF009B6
:101BB600F109F209F309F00A0319F10A0319F20A05
:101BC6000319F30AA101A10AF71FEA2DEB2DFA2D3D
:101BD600F409F509F609F709F40A0319F50A0319D0
:101BE600F60A0319F70A0130F8007808A106003052
:101BF600A5000030A4000030A3000030A200730846
:101C06007204710470040319092E0A2E572EA001BE
:101C1600A00A1A2E0130F8000310F00DF10DF20D96
:101C2600F30DF80B0F2E0130F8007808A007F31F0C
:101C36001D2E1E2E0D2E0130F8000310A20DA30D31
:101C4600A40DA50DF80B202E73087702031D352E63
:101C560072087602031D352E71087502031D352E96
:101C660070087402031C382E392E482E7008F402B0
:101C76007108031C710FF5027208031C720FF6023D
:101C86007308031C730FF702221401300310F30CC0
:101C9600F20CF10CF00CFF3E031D492E0130A002A0
:101CA600031D562E572E1E2E210803195B2E5C2E61
:101CB600672EA209A309A409A509A20A0319A30A62
:101CC6000319A40A0319A50A2508F3002408F2003B
:101CD6002308F1002208F0000800831603132208E7
:101CE60083120313A6008316031323088312031318
:101CF600A700A801A9010A128A15C7230A128A1584
:101D0600043083160313210200300319200203183E
:101D16008D2E8E2E372F200883120313A6008316CE
:101D26000313210883120313A700A801A901003099
:101D36000A128A110D200A128A1583120313290822
:101D4600B7002808B6002708B5002608B4004430B6
:101D5600B3007F30B200C030B1000030B0000A12CC
:101D66008A11B2220A128A15831203133308D1008C
:101D76003208D0003108CF003008CE000030F7001E
:101D86003D30F6000930F5000030F40083160313E9
:101D96002308A5002208A4000310A40DA50D031016
:101DA600A40DA50D2408F0002508F100F201F301A9
:101DB6000A128A15D3250A128A1573088312031389
:101DC600A9007208A8007108A7007008A6000130D3
:101DD6000A128A110D200A128A1583120313290882
:101DE600CD002808CC002708CB002608CA000A1216
:101DF6008A118F240A128A15831203134D08E700ED
:101E06004C08E6004B08E5004A08E4000A128A1569
:101E160057250A128A1583120313650883160313BE
:101E2600A10083120313640883160313A000831210
:101E360003139712831603132018222F262F8312BB
:101E460003131716292F831203131712831603136E
:101E56002008A40002300310A40CFF3E031D2E2F01
:101E6600240883120313950008008316031322081F
:101E760083120313A6008316031323088312031386
:101E8600A700A801A9010A128A15C7230A128A15F2
:101E960004308316031321020030031920020318AD
:101EA600552F562FFF2F200883120313A6008316E3
:101EB6000313210883120313A700A801A901003008
:101EC6000A128A110D200A128A1583120313290891
:101ED600B7002808B6002708B5002608B400443025
:101EE600B3007F30B200C030B1000030B0000A123B
:101EF6008A11B2220A128A15831203133308D100FB
:101F06003208D0003108CF003008CE000030F7008C
:101F16003D30F6000930F5000030F4008316031357
:101F26002308A5002208A4000310A40DA50D031084
:101F3600A40DA50D2408F0002508F100F201F30117
:101F46000A128A15D3250A128A15730883120313F7
:101F5600A9007208A8007108A7007008A600013041
:101F66000A128A110D200A128A15831203132908F0
:101F7600CD002808CC002708CB002608CA000A1284
:101F86008A118F240A128A15831203134D08E7005B
:101F96004C08E6004B08E5004A08E4000A128A15D8
:101FA60057250A128A15831203136508831603132D
:101FB600A10083120313640883160313A00083127F
:101FC60003139D12831603132018EA2FEE2F831294
:101FD60003131D16F12F831203131D128316031309
:101FE6002008A40002300310A40CFF3E031DF62FA8
:0A1FF6002408831203139B00080067
:02400E003A3F37
:00000001FF
